:1000000012C02CC02BC02AC029C028C027C026C0BF
:1000100025C025C023C022C021C020C046C01EC0AC
:100020001DC01CC01BC011241FBECFE5D4E0DEBF25
:10003000CDBF10E0A0E6B0E0E4E8F1E002C005903A
:100040000D92A036B107D9F710E0A0E6B0E001C0EC
:100050001D92A436B107E1F73AD092C0D1CF1F92DA
:100060000F920FB60F9211248F939F93809161008E
:10007000882349F0909163009062909363008F5FB2
:100080008093610005C0809163008F7D8093630041
:1000900080916100853610F0109261009F918F91E0
:1000A0000F900FBE0F901F9018951F920F920FB6D2
:1000B0000F9211248F9384B18093620085B1809355
:1000C00062008F910F900FBE0F901F90189583B70D
:1000D000836083BF89B7816089BF8FEF87BB18BA00
:1000E00080E384BB8FE085BB80EE81BB12BA86E2E1
:1000F00087B98FEE86B9789421E058E044E032E089
:1001000083B38770853059F0863019F0833091F4CD
:100110000CC0809163008068809363000BC0809165
:1001200063008F738093630005C0809163008064D7
:100130008093630083B383FD02C0209361008091AC
:100140006200982F9650983110F428BB0FC0982F5A
:100150009D53973210F438BB09C0982F95569133B0
:1001600010F448BB03C0873908F058BB83ED90E317
:100170000197F1F700C000008091630082BBC0CFFF
:04018000F894FFCF21
:00000001FF
