:1000000012C02CC02BC02AC029C028C027C026C0BF
:1000100025C025C023C022C021C020C01FC01EC0D3
:100020001DC01CC01BC011241FBECFE5D4E0DEBF25
:10003000CDBF10E0A0E6B0E0E2E1F1E002C0059043
:100040000D92A036B107D9F710E0A0E6B0E001C0EC
:100050001D92A236B107E1F728D059C0D1CF1F9227
:100060000F920FB60F9211248F939F93809160008F
:10007000882349F0909161009062909361008F5FB6
:100080008093600005C0809161008F7D8093610046
:1000900080916000853610F0109260009F918F91E2
:1000A0000F900FBE0F901F901895789483B78360C0
:1000B00083BF89B7816089BF80E384BB8FE085BB44
:1000C00080EE81BB12BA91E083B38770853059F01E
:1000D000863019F0833091F40CC080916100806803
:1000E000809361000BC0809161008F7380936100E9
:1000F00005C08091610080648093610083B383FDBB
:1001000002C0909360008091610082BBDDCFF894C3
:02011000FFCF1F
:00000001FF
