:1000000012C021C020C01FC01EC01DC0FFC01BC029
:100010009CC01AC018C007C22FC215C083C013C02D
:1000200012C011C010C011241FBECFE5D4E0DEBF46
:10003000CDBF20E0A0E6B0E001C01D92AB3BB2070F
:10004000E1F760D14FC2DCCF1F920F920FB60F9233
:1000500011242F938F939F9380916300882309F439
:1000600058C091E0980F9093630020E9280F2F303B
:1000700028F42091BA002F7D2093BA0020EA280F9F
:100080002F3028F42091BA0020622093BA0020EC8F
:10009000280F2F3128F42091BA002F7D2093BA0029
:1000A00020ED280F2F3028F42091BA0020622093F1
:1000B000BA0020EE280F2F3028F42091BA002F7DAF
:1000C0002093BA0020EF280F2F3028F42091BA0097
:1000D00020622093BA008850873028F48091BA00BB
:1000E0008F7D8093BA00983028F48091BA008062A6
:1000F0008093BA00913838F0109263008091BA0072
:100100008F7D8093BA0080916300813810F0109247
:10011000630078949F918F912F910F900FBE0F9055
:100120001F9018951F920F920FB60F9211248F9364
:1001300084B18093A90085B18093A90078948F91B0
:100140000F900FBE0F901F9018951F920F920FB631
:100150000F9211248F939F938DE68DBD84E88CBD03
:1001600080916000811125C080916100813031F45F
:100170009091BA0090689093BA0010C0823031F428
:100180008091BA0080648093BA000FC0833031F44C
:100190008091BA00806C8093BA0007C0811105C0BD
:1001A0008091BA008F738093BA0081E080936000E1
:1001B00025C0813019F580916100813031F4909132
:1001C000BA009F779093BA0010C0823031F48091CA
:1001D000BA008F7B8093BA000FC0833031F48091D6
:1001E000BA008F738093BA0007C0811105C0809157
:1001F000BA008F738093BA001092600078949F9138
:100200008F910F900FBE0F901F9018951F920F9215
:100210000FB60F9211248F939F93809160008111EC
:1002200025C080916100813031F49091BA009068CE
:100230009093BA0010C0823031F48091BA0080648B
:100240008093BA000FC0833031F48091BA00806C83
:100250008093BA0007C0811105C08091BA008F73E6
:100260008093BA0081E08093600025C0813019F549
:1002700080916100813031F49091BA009F77909322
:10028000BA0010C0823031F48091BA008F7B809325
:10029000BA000FC0833031F48091BA008F7380931D
:1002A000BA0007C0811105C08091BA008F73809396
:1002B000BA001092600078949F918F910F900FBEBA
:1002C0000F901F9018950F931F93CF93DF93882360
:1002D00059F0C2EBD0E0082F10E00E541F4F899167
:1002E000F0D0C017D107D9F7DF91CF911F910F91AF
:1002F000089583E389B910BC1BB888E18AB986E800
:1003000080BD089584E083BF85E089BF8FB58FBD30
:100310008EB583608EBD8DE68DBD84E88CBD80E397
:1003200084BB8FE085BB8CEF81BB12BA87B38F6033
:1003300087BBC09886E287B98FEE86B98091BA00F4
:10034000877E84608093BA00D4DF7894D2DF80E324
:100350008093B20081E38093B30082E38093B40082
:1003600083E38093B50062EB70E084E0ACDF21E0D2
:1003700042E033E083B38770853059F0863019F05E
:10038000833079F409C080916100816080936100BD
:1003900008C01092610005C0809161008260809366
:1003A00061009B9B209363008091A9009AEF980FB6
:1003B000983110F42093620093EC980F973210F468
:1003C000409362009BE9980F913310F430936200E0
:1003D000873918F0109262001CC080916200823050
:1003E00059F0833081F08130A1F48091BA008B7F85
:1003F00088618093BA000DC08091BA008B7E8860BE
:100400008093BA0006C08091BA00877E8460809392
:10041000BA008FE59AEE0197F1F700C000008091D5
:10042000BA0082BBA7CF1F920F920FB60F92112472
:100430002F938F939F93EF93FF938BB12CB1887180
:10044000E0916600EF5FEF7190916500E91739F078
:10045000E0936600F0E0E759FF4F208301C082E09F
:1004600080936400FF91EF919F918F912F910F9056
:100470000FBE0F901F9018951F920F920FB60F92FC
:1004800011248F939F93EF93FF9390916800809135
:100490006700981761F0E0916700EF5FEF71E093FC
:1004A0006700F0E0E757FF4F80818CB901C0559895
:1004B000FF91EF919F918F910F900FBE0F901F9022
:1004C0001895209168002F5F2F7190916700291770
:1004D000E1F3E22FF0E0E757FF4F808320936800BD
:0804E000559A0895F894FFCF2E
:00000001FF
