:1000000012C02CC02BC02AC029C028C027C026C0BF
:1000100025C025C023C022C021C020C068C01EC08A
:100020001DC01CC01BC011241FBECFE5D4E0DEBF25
:10003000CDBF10E0A0E6B0E0E8ECF1E002C0059032
:100040000D92A036B107D9F710E0A0E6B0E001C0EC
:100050001D92A536B107E1F75CD0B4C0D1CF1F9295
:100060000F920FB60F9211242F938F939F9380912D
:1000700062008823A1F1982F9F5F90936200282F40
:100080002F50243028F4209164002F7D20936400A9
:10009000282F2A50243028F42091640020622093D5
:1000A00064008550843028F4809164008F7D8093B3
:1000B0006400953028F4809164008062809364002D
:1000C000953138F010926200809164008F7D8093AA
:1000D000640080916200853110F0109262009F915F
:1000E0008F912F910F900FBE0F901F9018951F9218
:1000F0000F920FB60F9211248F9384B180936300F7
:1001000085B1809363008F910F900FBE0F901F9069
:10011000189583B7836083BF89B7816089BF8FEFEC
:1001200087BB18BA80E384BB8FE085BB80EE81BBC0
:1001300012BA86E287B98FEE86B9789421E042E060
:1001400033E083B38770853059F0863019F08330FF
:1001500091F40CC0809164008068809364000BC0AF
:10016000809164008F738093640005C08091640067
:1001700080648093640083B383FD02C02093620097
:1001800080916300982F9650983110F4209360006E
:10019000982F9D53973210F440936000982F9556F6
:1001A000913310F430936000873910F010926000A2
:1001B00083ED90E30197F1F700C0000080916400A7
:0801C00082BBBFCFF894FFCF12
:00000001FF
