S01500004C696768745F636F6E74726F6C2E73726563B7
S113000012C021C020C01FC01EC01DC0FFC01BC025
S11300109CC01AC018C017C058C115C083C013C0F3
S113002012C011C010C011241FBECFE5D4E0DEBF42
S1130030CDBF20E0A0E6B0E001C01D92AA37B20710
S1130040E1F770D14DC2DCCF1F920F920FB60F9221
S113005011242F938F939F9380916500882309F433
S113006058C091E0980F9093650020E9280F2F3035
S113007028F4209179002F7D2093790020EA280F1D
S11300802F3028F42091790020622093790020EC0D
S1130090280F2F3128F4209179002F7D20937900A7
S11300A020ED280F2F3028F420917900206220932E
S11300B0790020EE280F2F3028F4209179002F7D2D
S11300C02093790020EF280F2F3028F42091790015
S11300D02062209379008850873028F48091790039
S11300E08F7D80937900983028F480917900806224
S11300F080937900913838F01092650080917900EE
S11301008F7D8093790080916500813810F0109282
S1130110650078949F918F912F910F900FBE0F904F
S11301201F9018951F920F920FB60F9211248F9360
S113013084B18093680085B18093680078948F912E
S11301400F900FBE0F901F9018951F920F920FB62D
S11301500F9211248F939F938DE68DBD84E88CBDFF
S113016080916200811125C080916300813031F457
S11301709091790090689093790010C0823031F4A6
S1130180809179008064809379000FC0833031F4CA
S113019080917900806C8093790007C0811105C03B
S11301A0809179008F738093790081E0809362005D
S11301B025C0813019F580916300813031F490912C
S11301C079009F739093790010C0823031F480914C
S11301D079008F73809379000FC0833031F480915C
S11301E079008F738093790007C0811105C08091D5
S11301F079008F73809379001092620078949F91B4
S11302008F910F900FBE0F901F9018951F920F9211
S11302100FB60F9211248F939F93809162008111E6
S113022027C080916300833031F490917900906C01
S11302309093790012C0813039F4809179008F73E2
S113024080688093790010C0823039F480917900FD
S11302508F7380648093790007C0811105C08091F9
S113026079008F738093790081E08093620025C0C8
S1130270813019F580916300833031F490917900D5
S11302809F739093790010C0813031F4809179008C
S11302908F77809379000FC0823031F48091790098
S11302A08F7B8093790007C0811105C0809179000C
S11302B08F73809379001092620078949F918F914C
S11302C00F900FBE0F901F9018951F920F920FB6AC
S11302D00F9211248F93EF93FF93E091610080912B
S11302E06000E81748F4EF5FE0936100F0E0E7593D
S11302F0FF4F80818CB905C0559810926000109210
S11303006100FF91EF918F910F900FBE0F901F909E
S1130310189583E389B910BC1BB888E38AB986E8C9
S113032080BD089584E083BF85E089BF8FB58FBD0C
S11303308EB583608EBD8DE68DBD84E88CBD80E373
S113034084BB8FE085BB8CEF81BB12BA87B38F600F
S113035087BBC09886E287B98FEE86B98091790011
S1130360877E8460809379007894D3DFCC24C3940F
S11303706894662461F80F2EF3E07F2EF02D09E6D1
S113038010E00F2EFCECDF2EF02D6AE670E00F2E4D
S1130390F3E38F2EF02D4BE650E02CE630E00F2EE9
S11303A0FDE62F2EF0E03F2EF02D0F2EF7EB9F2EC3
S11303B0F02DCEE6D0E00F2EF8E4AF2EF02DAFE610
S11303C0B0E0EE24EA940F2EF7E0BF2EF02D83B3B5
S11303D087708330E1F018F4823031F01EC085302C
S11303E081F0863039F019C0809163008360809376
S11303F0630013C0809163008C7F816080936300ED
S11304000CC0809163008C7F8093630006C0809150
S113041063008C7F8260809363009B9BC092650025
S1130420809168009AEF980F983110F4C09264009C
S113043093EC980F973210F4609264009BE9980F44
S1130440913310F470926400873918F010926400AC
S11304501FC080916400823061F0833091F081305C
S1130460B9F4F09079008F2D8B7E886080937900A9
S11304700FC0F09079009F2D9B7F98619093790035
S113048007C0F0907900EF2DE77EE460E0937900F7
S11304908FE59AEE0197F1F700C00000F090790023
S11304A0509066005F14C1F0F801D082FB01808295
S11304B0F0926600FA01F082F094F0926700F9017C
S11304C0F082F1019082A882EC92E0E7F0E0E08211
S11304D0B0926000DCB8559AF0907900F2BA77CF08
S10704E0F894FFCFBA
S9030000FC
