:1000000012C021C020C01FC01EC01DC0FFC01BC029
:100010009CC01AC018C017C056C115C083C013C0F9
:1000200012C011C010C011241FBECFE5D4E0DEBF46
:10003000CDBF20E0A0E6B0E001C01D92AA37B20714
:10004000E1F76FD12BC2DCCF1F920F920FB60F9248
:1000500011242F938F939F9380916500882309F437
:1000600058C091E0980F9093650020E9280F2F3039
:1000700028F4209179002F7D2093790020EA280F21
:100080002F3028F42091790020622093790020EC11
:10009000280F2F3128F4209179002F7D20937900AB
:1000A00020ED280F2F3028F4209179002062209332
:1000B000790020EE280F2F3028F4209179002F7D31
:1000C0002093790020EF280F2F3028F42091790019
:1000D0002062209379008850873028F4809179003D
:1000E0008F7D80937900983028F480917900806228
:1000F00080937900913838F01092650080917900F2
:100100008F7D8093790080916500813810F0109286
:10011000650078949F918F912F910F900FBE0F9053
:100120001F9018951F920F920FB60F9211248F9364
:1001300084B18093680085B18093680078948F9132
:100140000F900FBE0F901F9018951F920F920FB631
:100150000F9211248F939F938DE68DBD84E88CBD03
:1001600080916200811125C080916300813031F45B
:100170009091790090689093790010C0823031F4AA
:10018000809179008064809379000FC0833031F4CE
:1001900080917900806C8093790007C0811105C03F
:1001A000809179008F738093790081E08093620061
:1001B00025C0813019F580916300813031F4909130
:1001C00079009F779093790010C0823031F480914C
:1001D00079008F7B809379000FC0833031F4809158
:1001E00079008F738093790007C0811105C08091D9
:1001F00079008F73809379001092620078949F91B8
:100200008F910F900FBE0F901F9018951F920F9215
:100210000FB60F9211248F939F93809162008111EA
:1002200025C080916300813031F49091790090680D
:100230009093790010C0823031F48091790080640D
:10024000809379000FC0833031F480917900806C05
:100250008093790007C0811105C0809179008F7368
:100260008093790081E08093620025C0813019F588
:1002700080916300813031F4909179009F77909361
:10028000790010C0823031F4809179008F7B8093A7
:1002900079000FC0833031F4809179008F7380939F
:1002A000790007C0811105C0809179008F73809318
:1002B00079001092620078949F918F910F900FBEF9
:1002C0000F901F9018951F920F920FB60F92112446
:1002D0008F93EF93FF93E091610080916000E817A6
:1002E00048F4EF5FE0936100F0E0E759FF4F808151
:1002F0008CB905C055981092600010926100FF9172
:10030000EF918F910F900FBE0F901F901895C09A8C
:1003100083E389B910BC1BB888E38AB986E880BD3D
:10032000089584E083BF85E089BF8FB58FBD8EB50A
:1003300083608EBD8DE68DBD84E88CBD80E384BB7B
:100340008FE085BB8CEF81BB12BA87B38F6087BB10
:10035000C09886E287B98FEE86B980917900877E52
:100360008460809379007894D2DFFF24F3946894BA
:10037000BB24B1F80F2EF3E0CF2EF02D49E650E06C
:100380000CEC2AE630E00F2EF3E3DF2EF02D0F2EDB
:10039000FBE68F2EF0E09F2EF02DCCE6D0E0ADE610
:1003A000B0E01FEF0F2EFEE66F2EF0E07F2EF02D57
:1003B0000F2EF5E0EF2EF02D63B36770653059F026
:1003C000663019F0633079F409C0609163006160B0
:1003D0006093630008C01092630005C060916300E1
:1003E0006260609363009B9BF0926500609168007F
:1003F0007AEF760F783110F4F092640073EC760F98
:10040000773210F4B09264007BE9760F713310F408
:10041000C0926400673918F0109264001CC06091AB
:100420006400623059F0633081F06130A1F4609172
:1004300079006B7F6861609379000DC060917900ED
:100440006B7E68606093790006C060917900677E7A
:100450006460609379008FE59AEE0197F1F700C030
:1004600000006091790070916600761799F0FA01AA
:100470000083F901D08260936600F4016083609587
:100480006093670068831C93F3011083E09260001F
:100490000CB9559A6091790062BB8ECFF894FFCF6A
:00000001FF
