:1000000012C02CC02BC02AC029C028C0A7C026C03F
:1000100025C025C023C022C021C020C08DC01EC065
:100020001DC01CC01BC011241FBECFE5D4E0DEBF25
:10003000CDBF10E0A0E6B0E0EAE0F3E002C005903A
:100040000D92A036B107D9F710E0A0E6B0E001C0EC
:100050001D92A736B107E1F7DDD055C1D1CF1F9270
:100060000F920FB60F9211242F938F939F9380912D
:100070006400882309F458C0982F9F5F9093640010
:10008000282F2853273028F4209166002F7D2093B5
:100090006600282F2053273028F420916600206224
:1000A00020936600282F20522F3028F420916600DC
:1000B0002F7D20936600282F2851273028F4209187
:1000C0006600206220936600282F2051273028F4F4
:1000D000209166002F7D20936600282F285027301E
:1000E00028F42091660020622093660084508330BB
:1000F00028F4809166008F7D80936600943028F408
:1001000080916600806280936600913438F010928E
:100110006400809166008F7D80936600809164000A
:10012000813410F0109264009F918F912F910F9065
:100130000FBE0F901F9018951F920F920FB60F923F
:1001400011248F9384B18093650085B180936500FD
:100150008F910F900FBE0F901F9018951F920F92C6
:100160000FB60F9211248F939F9380916000882384
:1001700029F580916100813031F49091660090689A
:100180009093660010C0823031F4809166008064E4
:10019000809366000FC0833031F480916600806CDC
:1001A0008093660007C0882329F4809166008F73CE
:1001B0008093660081E08093600025C0813019F54E
:1001C00080916100813031F4909166009F77909327
:1001D000660010C0823031F4809166008F7B80937E
:1001E00066000FC0833031F4809166008F73809376
:1001F000660007C0882329F4809166008F7380937E
:100200006600109260009F918F910F900FBE0F902B
:100210001F90189583B7836083BF89B7816189BFB9
:100220008FB58FBD8EB582608EBD81E19AE79BBD93
:100230008ABD80E384BB8FE085BB8CEF81BB12BAA3
:1002400086E287B98FEE86B9789421E042E033E008
:1002500083B38770853059F0863019F0833079F494
:1002600009C08091610081608093610008C0109294
:10027000610005C08091610082608093610083B35A
:1002800083FD02C02093640080916500982F9650F2
:10029000983110F420936200982F9D53973210F4F8
:1002A00040936200982F9556913310F4309362007A
:1002B000873918F0109262001CC080916200823071
:1002C00059F0833081F08130A1F48091660088601C
:1002D0008B7E809366000DC0809166008061837F75
:1002E0008093660006C0809166008460877E80935C
:1002F000660083ED90E30197F1F700C00000809164
:0A030000660082BBA5CFF894FFCF82
:00000001FF
