:040000000C94B801A3
:100004000C9400000C9400000C9400000C9400006C
:100014000C9400000C9400000C9400000C9400005C
:100024000C9400000C9400000C9400000C9400004C
:100034000C9400000C9400000C9400000C9400003C
:100044000C9400000C9400000C9400000C9400002C
:100054000C9400000C9400000C9400000C9400001C
:100064000C9400000C9400000C9400000C9400000C
:100074000C9400000C9400000C9400000C940000FC
:100084000C9400000C9400000507206000000000A0
:10009400000000040404040400040A0A0A00000026
:1000A400000A0A1F0A1F0A0A041E050E140F04037D
:1000B4001308040219180609050215091606040294
:1000C40000000000080402020204080204080808F0
:1000D4000402000A041F040A000004041F040400AC
:1000E400000000000604020000001F0000000000E1
:1000F4000000060600001008040201000E11191584
:1001040013110E0406040404040E0E111008040254
:100114001F1F08040810110E080C0A091F08081FE5
:10012400010F1010110E0C02010F11110E1F1008F7
:10013400040202020E11110E11110E0E11111E10E5
:10014400080600060600060600000606000604026D
:100154001008040204081000001F001F0000010220
:1001640004080402010E1110080400040E111016F4
:1001740015150E0E1111111F11110F11110F11115F
:100184000F0E11010101110E070911111109071FA9
:1001940001010F01011F1F0101070101010E1101DE
:1001A4000119110E1111111F1111110E040404046F
:1001B400040E1C080808080906110905030509119D
:1001C4000101010101011F111B151111111111115F
:1001D40013151911110E11111111110E0F11110F07
:1001E4000101010E1111111509160F11110F050945
:1001F400111E01010E10100F1F0404040404041145
:1002040011111111110E11111111110A04111111F1
:1002140015151B1111110A040A111111110A0404F4
:1002240004041F10080402011F1C04040404041C19
:100234000001020408100007040404040407040A6B
:1002440011000000000000000000001F020408006C
:1002540000000000000E101E111E01010D131111EB
:100264000F00000E0101110E1010161911111E00BD
:10027400000E111F010E0C12020702020200001EE2
:10028400111E100C01010D131111110400060404B8
:10029400040E08000C080809060202120A060A12D3
:1002A4000604040404040E00000B151511110000CB
:1002B4000D1311111100000E1111110E00000F1178
:1002C4000F0101000016191E101000000D1301018A
:1002D4000100000E010E100F0202070202120C00B0
:1002E40000111111191600001111110A0400001156
:1002F4001115150A0000110A040A11000011111E3B
:10030400100E00001F0804021F080404020404085D
:10031400040404040404040204040804040202158A
:1003240008000000001F11111111111F0001030723
:100334000F1F3F7FFF0030302000200080908898FE
:100344005354415254210025337500002D4E414E23
:10035400000001002D4E414E00494E4600000700AA
:100364000005440301003C0556030000F894EE2701
:10037400ECBBF1E0F5BFE5BFE0936C008DE0A2E0DB
:10038400BB27ED938A95E9F780E090E1A0E0B1E026
:10039400ED930197E9F7E2E6F3E0859195910097F3
:1003A40061F0A591B59105901590BF01F0010590FC
:1003B4000D920197E1F7FB01F0CF8BBFEFEFEDBF9B
:1003C400E0E1EEBFC0E0D5E00C94E8016097E0E026
:1003D400EABBEBBBE7BBE8BBE4BBE5BBE1BBE2BB11
:1003E400E2B9E3B9E0936100E0936200E093640052
:1003F400E0936500E0BFE3BFE2BFE1BFEFBDEEBD48
:10040400EDBDECBDE7BDE6BDEBBDEABDE9BDE8BDB4
:10041400E0937900E0937800E5BDE4BDE3BDE093AB
:100424008B00E0938A00E0938900E0938800E093D6
:100434008100E0938000E0938700E0938600E093DE
:100444008500E0938400E0938300E0938200E7BF9B
:10045400E0937D00E0936A00EABFE9BFEAB9E09364
:100464009A00E0E8E8B9E0E0E0BDE6B9EDB9E09370
:100474007400ECE8F0E0EA87FB87E0E0EC87ED87C6
:10048400EE87EF87DE011A960E94F406E0910705D5
:10049400E03039F0E0E0EA93EA93A0E0B5E00E94AE
:1004A4002C0B98D081D010E01C3910F5A12F48D026
:1004B400FE01FA93EA93EBE4F3E0FA93EA93E12F73
:1004C400FF27662777270E94E81084E00E94110620
:1004D4002896E0E0EA93EA93DE0112960E942C0B40
:1004E400A4EFB1E00E94940EA12F41D01F5FDCCF96
:1004F400DACFFFCFE1B3E760E1BB8B98ECE0E2BB7E
:10050400909808958BE28A95F1F70895AA931A9327
:1005140010E0183078F4F6DFE981E07811F0919A70
:1005240001C091989298EEDF929AE981EE0FE983E7
:100534001F5FEFCF8BE28A95F1F718812296089519
:10054400AA931A930A93AA81A83928F40E940D0D3C
:100554000E94160D08C0EA81E859EA830E940D0D35
:100564000E94210DED60E129DB01EC9318C0AA93F0
:100574001A930A93AA81A83930F40E940D0D0E949F
:10058400160DE09509C0EA81E859EA830E940D0D31
:100594000E94210DE095ED60E121DB01EC9304D094
:1005A40019810881239608951A93A2E8AFDFAADF80
:1005B400909AA8DF10E0143140F4E12FF0E0E95FF5
:1005C400FA4FA081A3DF1F5FF6CF909891989ADF2E
:1005D4000C9490068FDF0895BA93AA931A930A9302
:1005E400AA81BB8112960E94CF10309729F1AA816B
:1005F400BB8114960E94CF108F01309761F00230B6
:10060400E0E01E0780F0F80131978F01AA81BB81D9
:100614001496ED93FC93AA81BB8112960E942B0D34
:100624003197AC81A083AA81BB810E94CF10FF23A4
:1006340012F00E942B0D06C0AA81BB81EFEFFFEFE1
:10064400ED93FC9319810881259608950E94310D3C
:10065400E0E8EA83EFE3EB830E942611EE85FF8551
:10066400EF3FAFEFFA0749F4E885F985FA93EA9387
:10067400A0E5B3E00E945C0BB4C0EF3FAFE7FA071C
:1006840049F4E885F985FA93EA93A1E5B3E00E9479
:100694005C0BA7C0AB85A73010F0E6E0EB871B85A9
:1006A400E12F1150E03019F00E94380DF9CFEC859C
:1006B400FD856E857F850E941C1121F430E00E9427
:1006C400380D2DC03B850E94470D09F008F40BC07E
:1006D4000E94380D0E94470D28F00E94520D0E947E
:1006E400570DF8CF0DC00E94470D40F40E94520DE3
:1006F4000E94630D0E946A0D3150F5CF0E94380D9F
:10070400EC85FD856E857F850E946F0D0E946A0DC4
:100714000E94470D20F00E94520D0E94570D10E0D8
:10072400EB85E11790F1AC81BD818E819F810E94A0
:10073400760D0E946F0DDF01CB010E94B30BEC8399
:10074400FD836E837F830E94520D0E94E20F0E94FC
:10075400D10E0E2F0E947D0D0E94840D0E94890DE2
:10076400AC81BD818E819F810E94940F0E94520DA5
:100774000E948F0D0E946A0DE12F1F5FE03081F609
:100784000E947D0DEEE2EC93CBCF0E94940D319745
:10079400AA85A08330302CF43195A885B985EDE283
:1007A40003C0A885B985EBE2EC930E94940D0E94E6
:1007B400940D3197BF01A32FEAE00E948910E05DF8
:1007C400DB01EC930E94940D3197BF01A32FEAE063
:1007D4000E94B310E05DDB01EC93A885B985E0E0ED
:1007E400EC930E942D1160960895BA93AA93EF9703
:1007F40061970E94241110E0FE01E85AFF4F019016
:10080400F081E02DE887F987FE01EA5AFF4F019055
:10081400F081E02DEE83FF83AE81BF81E0E0F0E064
:10082400ED93FC93DE01A45ABF4F0E942B0D319728
:10083400E4912E2FE03009F4E9C1E12FE03039F4DE
:10084400253211F411E002C00E949A0DDEC1E1309C
:10085400C1F4253219F40E949A0DD6C112E0E0E0E9
:10086400ED8B00E02D3211F401E0CFC12B3219F4ED
:10087400EBE2ED8BCAC1203219F4E0E2ED8BC5C185
:1008840002C0E23039F450E013E0203311F4006880
:10089400BCC102C0E33091F4203310F02A3308F0D5
:1008A40007C0AAE05A9F502DE22FE0535E0FADC15E
:1008B40040E02E3211F414E0A8C10FC0E43099F4E2
:1008C400203310F02A3308F008C00062AAE04A9FDF
:1008D400402DE22FE0534E0F98C12C3619F40260DC
:1008E40015E093C103C0E53009F08FC1E22FE33670
:1008F40059F40E94A10D0E94A80D0E94A10DA4818B
:10090400AA930E94AF0D80C1E53411F0E53609F4D5
:1009140003C0E63609F048C0FE017696EE87FF87ED
:100924000E94B50D0E94D3100E94BC0D0E94C10DFF
:10093400AD85AA2332F0AD89AB3259F0A03281F0F3
:1009440017C00E94C30D0E949E0E0E94BC0DEDE2D2
:10095400ED8B07FF05C0ED89EA930E94AF0D08C037
:10096400EE85FF853196EE87FF873197AD89A083A9
:1009740005FF46E0263651F40E94C30D0E94E8109C
:100984004A93AB89BC890E94C90B09C00E94C30D5C
:100994000E94E8104A932A93AC89BD8957DEFE0170
:1009A40076960E94C80D1EC0E33739F40E94C10D2B
:1009B4000E94D00D0E94C80D0EC0E037C1F40E9401
:1009C400C10D0E94D00DEE87FF87AE85BF850E94C2
:1009D400750B1E2F08600F77403011F0411708F097
:1009E40001C0142F40E0E0E0EC8B30E06DC0E43651
:1009F40011F0E93611F4046002C0E537A1F4EAE02D
:100A0400EC8B01FF08C0E0E0FAEC6AE97BE30E94AA
:100A1400D50D1AE022C0E0E1F7E260E070E00E9448
:100A2400D50D15E01AC0E83511F4086003C0E837A5
:100A340009F0EAC0E0E1EC8B01FF08C0E0E0F0E07F
:100A440060E070E10E94D50D18E007C0E0E0F0E13D
:100A540060E070E00E94D50D14E0403011F00F7793
:100A640001C041E001FF08C00E94C10D0E94B50D04
:100A740014960E94D3100FC002FF07C00E94C10D3C
:100A84000E94D00D0E94691006C00E94C10D0E94F0
:100A9400D00D66277727EA87FB876C877D8702FF5F
:100AA40012C0AD85AA2342F40E94C30D0E944B10CC
:100AB4000E94BC0DEDE2ED8BED89E03019F01F5F73
:100AC4004F5F01C00B7F342F00FD14C0151710F4C5
:100AD400351708F00FC007FF08C002FF04C00B7FE2
:100AE4002D89115001C020E301C020E20E949A0D1B
:100AF4005150ECCF141790F4006102FF06C00E941D
:100B0400DA0D09F0515011504150E0E3EA930E948C
:100B1400AF0D503009F051504150ECCF312FEC89DA
:100B2400E030B9F43030A1F003FF06C0EE85FF8554
:100B34002591EE87FF8705C0AE85BF852D91AE87D1
:100B4400BF870E949A0D503009F051503150EACFBE
:100B540051C00E94EC0D0E948E102E2F2A3030F0CE
:100B640003FF02C0295C01C0295A01C0205D04FDB5
:100B740021C0213360F4A889B9898A899B89A1306D
:100B8400E0E0BE07E0E08E07E0E09E0709F40BC05A
:100B9400431740F4531710F000FF01C010C020E2C7
:100BA40007FF08C020E3006102FF04C00E94DA0DC1
:100BB40009F051500E949A0D503009F051503150B3
:100BC4000E94EC0D0E94BF100E94BC0DEC89A88904
:100BD400B9898A899B89FF27662777270E948E1007
:100BE4000E94D50DE889F9896A897B890E941C11C4
:100BF40009F0AFCF00FF08C0503031F05150E0E2AF
:100C0400EA930E94AF0DF8CF10E00CCEAE81BF8105
:100C14000E94CF100E942B11EF966F960895FF92B9
:100C2400F82E26970E9426110E94F50D309719F48C
:100C3400EFEFFFEF23C0DE0116960E9447108D01EF
:100C44000E94F50DEE83FF83E0E0E887E987DE018B
:100C54001A960E9447100E94CF10FA93EA931A93AF
:100C64000A93EEEEF2E0FA93EA93DE011A96BDDD02
:100C74009F01AE81BF81E0E0EC93F9010E942D1148
:100C84002A96FF9008950000000000000895AA939A
:100C9400C198C09AE7B3E06FE7BBE8B3EF70AE2F3B
:100CA400E881E07FEA2BE8BBEEDFC098E8B3EF70A1
:100CB400AE2FE881E295E07FEA2BE8BB0E94FC0DB1
:100CC400C09868C01A93C19AE7B3EF70E7BBC09AA3
:100CD400DADFE6B3E07F1E2FC0980E94FC0DE6B376
:100CE400E295EF701E2BC098E12F18C01A93C2989A
:100CF400C19AE7B3EF70E7BBC09AC5DFE6B3E0780B
:100D0400A0E00E946E101E2FC0980E94FC0DC09897
:100D1400BADF103089F785E08A95F1F719910895C3
:100D2400AA93E4DFC29AA881B2DF34C0DFDFC29A9B
:100D3400C9DF0895AA93DADFA881A9DF2BC0AA939B
:100D4400E881EF71E068AE2FF5DFA881A03218F0DA
:100D5400E981E068E983E981E295EF70E068AE2F0C
:100D6400E9DF0C94920CAA930E94010EE881E03012
:100D740011F0ECE001C0E8E0AE2FDCDFE881E03008
:100D840011F0E2E001C0E0E0E09338050E94010EBA
:100D94000E94070E219608950E94261130E0E091EA
:100DA4001C05E03009F03FEF0E94070E00E000341C
:100DB40088F4E0E0EA93A02F0F5FC1DF10E1E12F98
:100DC4001150E03031F0A32FABDF85E08A95F1F7C5
:100DD400F6CFEDCFE0E0EA93A0E050D40E942D11CD
:100DE4000C94F80CBA93AA931A93B89AC098B99A27
:100DF400C19ABA9AC298BB9AA2E3B0E00E94940E38
:100E0400C398A1E0B0E00E94940EC39AA1E0B0E0C0
:100E14000E94940EC198E7B3E06FE7BB10E0163070
:100E2400A8F4C09AE8B3EF70AE2FE12FF0E0E65CCF
:100E3400FC4FE491EA2BE8BB8BE18A95F1F7C0986B
:100E440080E293E00197F1F71F5FE9CFA8E01FDF8D
:100E540080E293E00197F1F7A1E06CDFAFE0B0E04E
:100E64000E94940EE0E0E0933B05E0933A05A6E08F
:100E740061DFA4E25FDFA0E45DDFA2E05BDFE0E02E
:100E8400E093380589DFA1E06EDFE1E0E0931B0524
:100E9400E0E0E0931C05E1E0E0932105E093220506
:100EA400E981FA813097A9F0A981BA810E94CF1013
:100EB400E0931F05F093200512960E94CF10E09353
:100EC4003405F0933505A981BA8114960E94CF1098
:100ED4000AC0E0E0F0E0E0931F05F0932005E09302
:100EE4003405F0933505E0933605F0933705E1E0DA
:100EF400E0932305EFEFE0932405E1E0E0932B0575
:100F0400ECE2F5E0FA93EA93EFEFEA93A8E0B0E0BD
:100F14000E944C0BE1E018810C94D90CAA93E9814E
:100F2400EA93A9810CDF02DFE981EF70E83018F061
:100F3400FDDEE0933905FADE0C94920CAA93EA8163
:100F4400EA93AA81FCDEEA81EF70E83018F0A09100
:100F54003905E6DEA881E4DE0C94D90CAA931A9331
:100F64000E94070EED81EA93AD810E940D0E1E2FA3
:100F7400E981E73011F0E83039F4EB81EA93AA8192
:100F84000E94940CEB830EC0E33021F4EB81E095D6
:100F9400EB8302C0E03009F402C0E93009F402C076
:100FA400EA3021F4EA81E0951E2302C0E23029F4FC
:100FB400EA81AB81EA231E2B0EC0E13029F4EA81D9
:100FC400AB81EA231E2707C0E43029F4EA81E095C7
:100FD400AB81EA2B1E23ED81EA93ED81EA93A12FE5
:100FE4000E94FA0CAE2FAADF188126960895AA93C0
:100FF40027970E942411AC89A03848F4AB89A03407
:1010040030F4AA89A03019F0A989A03009F4A8C144
:10101400EA89E695E695E6952E2F2887EA89E77012
:10102400EB87E03019F0E885EF5FE8870A89AC893F
:10103400BB27EA89F0E0AE0FBF1FA138E0E0BE078E
:1010440020F0AC89E0E8EA1BEA8BE989EA87AB89FE
:10105400BB27E989F0E0AE0FBF1FA134E0E0BE0773
:1010640020F0AB89E0E4EA1BE98BED85E63009F07A
:101074004EC0E889E13009F473C1E33039F4E091FA
:101084003605F0913705309709F46AC1EB85E030F5
:1010940019F4AA890A17D9F0E22FAE85BF85F0E0CA
:1010A4000E94120E1989103091F0322F3F933F5F46
:1010B400E885AF91AE1718F40E94170EF7CFE22F10
:1010C400AE81BF81F0E00E94120E1150ECCF29894D
:1010D400EA85E217D9F0A22FBB27E885F0E00E9449
:1010E4007310AE85BF850E94120E2F932F5FEA8581
:1010F400AF91AE1758F430E03F933F5FE885AF916E
:10110400AE1718F40E94170EF7CFEFCF0DC0E930D9
:1011140011F4E0E003C0EA3039F4EFEFEA87EA9330
:10112400AE850E94940CEA87EC89E7703E2FE8E0D4
:10113400E31B2E2F522FAA892A1710F05A890EC0AA
:10114400303061F0432FAA89A93018F4EA89E21BF0
:101154004E2FE42FF0E0E05DFC4F44913A93A52F2D
:101164000E94890C5E2FAB852A1718F4EB85E21BCD
:10117400EB87EB85F0E0E05DFC4F04900C860E9469
:10118400070EE989E150E98BEF5F09F4E9C010E04B
:101194000C89EE85FF85EE83FF83303009F496C019
:1011A4004B87AD85A63009F055C0EA891E1708F0B3
:1011B40050C00A93AC890E940D0EE523AE2FE32F95
:1011C4000E945B10E9870E94240E1E2EE32FA52F98
:1011D4000E945B10E095E121A985EA2BE987AA89A1
:1011E4002A1730F4E02FE695E695E695EF3040F0C7
:1011F4000E942C0EFA93EA93AC850E94DB0C29C062
:10120400AA89A11BA83010F4EC85EB87085F0A9328
:10121400AC890E940D0EAB85EA23AE2FE22F0E940B
:101224005310EA87E22FAB850E945310E095A985FD
:10123400EA23AA85EA2BEA870E942C0E3196EF83D3
:10124400F8873197FA93EA93AD850E94DB0C185F17
:10125400ACCF3BC0EA891E17C0F5ED85E93011F02B
:10126400EA3009F40DC00E942C0E3196EF83F88702
:10127400319766277727DF01CB010E94BC0CEA87F0
:101284000A93EC89EA93E32FAC850E945310EA9306
:101294005A93A98963DEAA892A17B8F4E02FE69540
:1012A400E695E695EF3088F4A11BA83010F4EC85A0
:1012B400EB87085F0A93EC89EA93E22FAC850E94DE
:1012C4005B100E94310E185FC5CF3EC05B87EA8970
:1012D4001E17D0F5AA89A11BA83010F4EC85EB8762
:1012E400ED85E93011F0EA3009F409C0AD85A63086
:1012F40019F4AB85AF3F19F00E94240EEA87AD853F
:10130400A630A1F40E942C0EFA93EA930A93AF89B3
:101314000E940D0EAE85EA230E2EEE85E095AD8576
:10132400EA23E029AE2F0E94DB0C06C00A93EC8965
:10133400EA93EC850E94310EEE81FF813196EE83B3
:10134400FF83085F185FC3CFEB89EF5FEB8BE88502
:10135400AE85BF85F0E0EA0FFB1FEE87FF8711CF54
:101364000E942B1165960895AA931A930A93AC814F
:10137400A03110F0EFE0EC83AB81A43010F0E3E097
:10138400EB83EB81F0E0E05CFC4FA491EC81E6950B
:10139400EA2B1E2F0E94010EA12FCCDCC7DCEC81AE
:1013A400E17011F0C3DC0E2FA12FC4DCEC81E170DD
:1013B40011F0A02FB5DCAA81B3DC1981088178C1B2
:1013C4000E94370E24F0E0E0F0E00C94920CA88127
:1013D400B981A038E0E0BE0724F0EFE7F0E00C9418
:1013E400920CE881F9810C94920C0E94370E24F03F
:1013F400E0E0F0E00C94920CA881B981A034E0E024
:10140400BE0724F0EFE3F0E00C94920CE881F9813C
:101414000C94920CBA93AA9323970E943E0E8F01C8
:10142400002E012A19F4E0E0F0E068C00E94450EA5
:101434000F820E94450E0E820E94450E0886EB859F
:10144400A885EA1718F4E0E0F0E058C0F8010F5F4F
:101454001F4F5491A885BB27EE27A50FBE1FEB8510
:10146400F0E0EA17FB0718F0E0E0F0E047C0EF8196
:10147400E030E1F0A985BA85EC93E695E695E6952A
:101484004E2FEF81E77009F04F5FA885EB85EA1BCB
:10149400F0E0DF01EE81F0E00E947310DF01E42F41
:1014A400F0E00E947310E00FF11F28C09801E52FAF
:1014B400F0E00E0F1F1FA885AF5FA887A150EB8532
:1014C400AE17B0F4F901E491E695E695E6954E2F52
:1014D400F9012F5F3F4FE491E77009F04F5FAE8150
:1014E400BB27E42FF0E00E9473100E0F1F1FE3CF01
:1014F400F901E491A985BA85EC93F8010E942B11B6
:101504002C960895E0E0E0931D05A0911E05BB27ED
:101514000E944A0EF0E0AE0FBF1FE0912205F0E0FA
:10152400AE0FBF1F0E94510E0895AA9321970E94E7
:101534003E0E309709F452C0AF81AA3009F44BC073
:10154400EF81EA93DE01179665DFAF01309709F466
:101554007DC0E0912105AE81EA0F3E2FA0911D05CB
:10156400BB27F0E0EA0FFB1F8F010138E0E01E0704
:1015740018F0032F1127C6DF0E94560EE885EA9360
:101584000E944A0EEA93E1E0EA935A934A93A7E051
:101594000E945D0EAE81EA0FEA93E0911E05EA9384
:1015A400E0912105EA930E944A0E0E94620E0E9475
:1015B4005D0EEA93A0911E050E944A0EEA0FEA937B
:1015C4003A93E09122050E94620E11DDE0E8F0E01A
:1015D400E017F10711F496DF39C036C0AF81AA30A5
:1015E40051F1E0911D05E695E695E6953E2FE091D3
:1015F4001E05E295EF702E2F3A932A93A985B4DE47
:10160400E32FEE0FEE0FEE0FE0931D05A0E12A9FEE
:10161400F001E0931E050E94560EE8E0EA93E0E133
:101624000E94620E0E945D0EF0E038968F01003831
:10163400E0E01E0748F000E010E0E0911E05F0E055
:101644007096DF010E94510E00931D050E942B111C
:1016540028960895BA93AA931A93EC81EA93AC81DD
:101664000DD0A981BA81ED91A983BA831E2FE030F0
:1016740019F0A12F5ADFF5CF18811AC0AA93A981B6
:10168400BB279EDEE0931D05A881BB270E94510E57
:101694000C94920CBA93AA93B981A881109631F054
:1016A400FC81EB816A8161931197E9F7EB81FC81FD
:1016B40025960895BA93AA93E991F991A991B991BC
:1016C400CD0105900D920020E1F7FC010895BA9335
:1016D400AA93A991B991EE27FF276D91662311F082
:1016E4003196FBCF0895BA93AA93AA27BB27E99111
:1016F400F9910590002011F01196FBCFFD0108959A
:101704000E94ED107B816A81F981E88177FB770F74
:1017140067FD7160972F9E5781F078F0983190F4AF
:10172400AA27BB27882708948795B795A7959A95E4
:10173400D1F7EA23FB23682305C0E8947727EE2733
:10174400FF2766276F77769508F4606877F9A99183
:10175400B99189919991EA17FB076807790797FB73
:1017640008950E94ED100E94DE100E94820B0E94D8
:10177400E31019F40E94D91039C1E6F70E94D91078
:10178400A0E0B0E080E89FE30E943D0F2FC10E94DB
:10179400310DE0E0EA83EFE3EB831A930A93EB85E0
:1017A400FC85EF3FAFEFFA0739F40E946B0EA8E512
:1017B400B3E00E945C0BA7C0EF3FAFE7FA0739F430
:1017C4000E946B0EA9E5B3E00E945C0B9CC0AC8543
:1017D400AA2362F4E985FA856B857C850E949E0EB6
:1017E4000E94700E0E94750EEDE2EC93A885A7305E
:1017F40010F0E6E0E8871885E12F1150E03039F069
:101804000E947C0E0E94760D0E94810EF5CF0E94EC
:10181400860E0E94440F0E94700E10E0E0E0F0E09B
:1018240060E87FE30E94810E0E94860E0E942710CA
:1018340088F00E947C0E0E94630D0E94810E1F5F3F
:10184400173238F00E946B0EADE5B3E00E945C0BDA
:101854005AC0EACF103029F40E94750EE0E3EC93ED
:1018640028C0E12F1150E03021F10E947C0E0E942B
:10187400760D0E946F0DDF01CB010E94B30B0E9415
:10188400810E0E94860E0E94E20F0E94D10E0E2F3E
:101894000E94750E0E94840D0E947C0E0E94890D88
:1018A4000E94940F0E948F0E0E948F0D0E94700E52
:1018B400D8CFE885E03019F10E94750EEEE2EC9382
:1018C400E885E150E887EF5FD1F00E948F0E0E9417
:1018D400630D0E94700EE985FA856B857C850E94F4
:1018E400D10E0E2F0E94750E0E94840D0E948F0E41
:1018F4000E94890D0E948F0D0E94700EE1CFAE816F
:10190400BF81E0E0EC93198108812D960895AA9394
:10191400E881F0E0E05DFC4FA491E9810E9453105E
:1019240022960895AA931A93E981E73011F0EA30D8
:1019340019F410911B0509C0E93019F410911C0524
:1019440004C0E830A1F410912B05E0911C05E030AF
:1019540049F0103019F0EFEF188129C0EA81E095C1
:10196400188125C0103019F4E0E0188120C0EA8104
:1019740018811DC0BA93AA93EA81E13021F4E88169
:10198400F981E49114C0E23029F4A881B9810E945C
:10199400FF100DC0E33041F4A881B981E091340512
:1019A400F0913505099503C0A881B981EC9123967E
:1019B4000895AA93EB81E03029F4E881A981BA81E2
:1019C400EC9314C0E23031F4E881A981BA810E9419
:1019D4000B110CC0E33051F4E981FA81FA93EA93D4
:1019E400AA81E0913605F09137050995249608956A
:1019F400AA93A991A0FBE7F9A1FBE6F9A2FBE5F9FB
:101A0400A3FBE4F9A4FBE3F9A5FBE2F9A6FBE1F9E6
:101A1400A7FBE0F90895EA81E695E695E6951E2F81
:101A2400EA81E7700E2F0895E12FF0E0E95FFA4FA5
:101A3400BF011080E02FA1E00E9453100895EAE155
:101A4400F5E0BF011080E02FEC5FA1E00E9453108D
:101A54000895ED91FD913196FE93EE930895BA9316
:101A6400AA932497E0E0E883E9830895AC81BD81DB
:101A74008E819F81E0E0F0E060E271E40E94940FC7
:101A8400EC83FD836E837F830895EC81FD816E81F9
:101A94007F81AC85BD858E859F850E942710089522
:101AA400AC85BD858E859F850895EDECFCEC6CECD2
:101AB4007DE30E94940FEC87FD876E877F873F5FED
:101AC4000895E0E0F0E060E271E40E94940F08956C
:101AD400EC87FD876E877F870895A0E0B0E080E003
:101AE4009FE30E94440F0895EDECFCEC6CEC7DE365
:101AF4000E94940F0895A885B9851196A887B9877F
:101B040011970895E02FE05DEC93E02F0895FF27EF
:101B1400662777270E940A0F08950E94F2100E94F8
:101B24003D0F0895E885F9853196E887F98708958A
:101B34002A93AF81B885E985FA8509950895FE0150
:101B4400E65AFF4F0190F081E02D08953497DE01AD
:101B5400A65ABF4FED93FC930895AF81B885E985EC
:101B6400FA8509950895DE01A65ABF4F0D90BC91E0
:101B7400A02D0895EA87FB876C877D870895DFDFB2
:101B8400E5CFEA85FB856C857D850895EE87FF8723
:101B9400AE85BF850E94690B1E2F0895E4DF14965D
:101BA4000E94CF100895E88BF98B6A8B7B8B089584
:101BB4000B7FED89EA93DE01A95ABF4F0D90BC91CA
:101BC400A02DFE01E75AFF4F0190F081E02D099509
:101BD40050300895E889F9896A897B89AA85BB858B
:101BE4008C859D850895DE011C960E9447100E94F5
:101BF400CF1008950E944506C09A0C944506E091C2
:101C04003805E062AE2F0C949C06E0913805E4623E
:101C1400AE2F0C949C060E949007AE2F0C94FA0CE5
:101C2400EA0FFB1FEE83FF830895E889EA93EF81AF
:101C3400F8853196EF83F8873197FA93EA93A0E019
:101C44000C94DB0CE889EA93AF81B885882799273F
:101C54000C94BC0CE889EA93EF81F8850895EA9323
:101C6400EE85EA93A9890C94B007BA93AA93A88144
:101C7400B9810E94201108950E942411E0911F054A
:101C8400F09120050895F8010F5F1F4F0490089507
:101C9400E0911F05F09120053196E49108950E948A
:101CA400F709E0931E050895E0911D05EA93E0917C
:101CB4001E05EA9308950E94F907E0911D05089511
:101CC400EA93E0E0EA93E0E0F0E0FA93EA93A9E033
:101CD4000895EE81FF81FA93EA930895E987FA87DC
:101CE4006B877C870895AE81BF811196AE83BF83D5
:101CF40011970895AA81BB818C819D810895EA83FF
:101D0400FB836C837D830895EA81FB816C817D81F3
:101D1400A985BA858B859C850895A985BA858B8507
:101D24009C850895109639F080EA9FE00197F1F7B9
:101D3400A8951197C9F7089530976040704009F04D
:101D440070580895552342F4503811F4E0FF04C04C
:101D54003196691F791F6BF050E8572711F45F9390
:101D6400CFC05F3F31F0660F000C57956795752F14
:101D740008955F9300200AF0CFC0C8C050E8192E20
:101D84001522880F991F9527550F879550E8072E20
:101D94000522660F771F7527550F67950895689478
:101DA40001C0E8945F93F2DF703818F07F3F08F4C5
:101DB400A7C056E1571BAAF4519558300EF4593078
:101DC40030F0EFEFFFEF6FEF7FE777F91AC0772777
:101DD4005523B9F0EE0FFF1F661F771F5A95D1F7F1
:101DE40010C07727583028F0EF2FF62F672F585060
:101DF400F9CF552331F076956795F795E7955A9580
:101E0400D1F700200AF445D15F910895689401C088
:101E1400E894309760407040B1F0002426F07723B6
:101E240012F4009436D1172E7EE1112032F07A9507
:101E3400EE0FFF1F661F111CF9CFEF2FF62F612D38
:101E44005F938ADF5F9108954F93AF01FD01DA013B
:101E5400AB01BC01CA01402D012C142E4F910895F1
:101E6400EA0FFB1F681F0895E095F0956095EF5FFA
:101E7400FF4F6F4F08955F9381DF903871F150E801
:101E8400152604C05F937ADF903839F1703821F158
:101E9400572F591B2BF112F4D7DFFACF583118F012
:101EA400AA27BB278827583028F0AB2FB82F8827BC
:101EB4005850F9CF552329F08695B795A7955A958B
:101EC400D9F7502D512572F0CBDF38F46795F7958B
:101ED400E795739513F420C0B7DF3EDF5F91089553
:101EE400D8F7FBCFEA1BFB0B680B51F010F40094FE
:101EF400BBDF662392F3EE0FFF1F661F7A95CBF7C5
:101F0400EE27FF27662777275F910895EFEFFFEF0E
:101F14006FE77FEF5F910895EFEFFFEF6FE77FE7E4
:101F24005F9108955F932ADF703851F3903841F33D
:101F340001240894791F23F41CF300203AF3ECCF16
:101F44000F921F932F933F934F9311272227992783
:101F5400689FA0018F9F302D410D591F6B9F300D3D
:101F6400411D591F8E9F27D0BF9F25D06A9F23D024
:101F7400BE9F1DD0AF9F1BD0AE9F110D291F391FCF
:101F8400491F591FE32FF42F652F522F4F913F9173
:101F94002F911F910F9066232AF0550FEE1FFF1FFC
:101FA400661F02C073954BF2CDDE5F910895100D4C
:101FB400211D391F02C0200D311D491F591F0895CD
:101FC4005F93DCDE703821F411200AF49FCFA4CF94
:101FD400903809F495CF01240894970B1BF4D4F39B
:101FE4000020F3CF792F1F932F933F934F93112406
:101FF4001127222733274427552790E2AE17BF071E
:102004008607410730F0AE1BBF0B860B410B0894CB
:1020140001C08894551F221F331F111CAA1FBB1F08
:10202400881F441F9A9551F7F901612D4F913F91F3
:102034002F911F91662332F0550FEE1FFF1F661F6D
:102044007A9543F27FDE5F91089599239AF077237E
:1020540042F0971748F029F4AE17BF07860720F01F
:1020640031F0989488940895989408940895189455
:10207400889408957723C2F7971798F3A9F7EA1776
:10208400FB07680788F399F3ECCF0024AF0DB01D6C
:102094000895F09560957095E195FF4F6F4F7F4FD0
:1020A4000895EE230E2EEA2F19F0EE0F0A94E9F7A5
:1020B4000895EE230E2EEA2F19F0E6950A94E9F717
:1020C4000895FE2FFF0FFF0B6F2F7F2F08956F2FA3
:1020D400660F660B762F0895EA17E1E009F4EE2700
:1020E4000895FA9FF02DEB9FF00DEA9FE02DF10D7E
:1020F4000895002498E0AA0F001C0E1A10F40E0E86
:1021040001C0A1609A95B9F7EA2FA02D089539D09E
:10211400F0DF0EF4E19508953F934F935F9300240D
:1021240011244427552730E2AA0FBB1F881F991F8B
:10213400001C111C441F551F0E1A1F0A460B570B77
:1021440028F40E0E1F1E461F571F01C0A1603A95AA
:1021540059F7FD01BC01D001CA015F914F913F9134
:102164000895E894A7FF02C0A1956894E7FDE1955E
:10217400C0DFEA2F0EF4E1950895CEDFFD01BC0126
:102184000895E894E7FF02C0E1956894A7FF04C0AE
:10219400A19500F8039400FA0895ED91FC9111972C
:1021A4000895ED91FD916D917C9113970895E881C7
:1021B400F9816A817B810895A881B9818A819B8193
:1021C4000895E883F9836A837B8308957A936A93F5
:1021D400FA93EA9308959A938A93BA93AA930895E3
:1021E400182E862F612D192E972F712D1B2EBF2F80
:1021F400F12D1A2EAE2FE12D0895E199FECFFF9314
:10220400FFB7F894AEBBBFBBE09AEDB3FFBFFF913D
:102214000895E19B02C0A895FCCF9FB7F894AEBB8C
:10222400BFBBE09A8DB3E81719F0EDBBE29AE19ACF
:102234009FBF0895309760407040089500240A16A7
:102244000B0608955A934A933A932A931A930A933E
:1022540008955D814C813B812A811981088108950B
:00000001FF
