:0800000006C1FECFFDCFFCCFCD
:10000800FBCFFACF40C149C1F7CFF6CFF5CFF4CF38
:10001800F3CFF2CF27C1F0CFEFCFEECFEDCF102740
:10002800E80364000A00010000100001100001004C
:100038000000000000005374617274210020202029
:100048002020202020202020202020202000682D73
:100058002532756D2D253275202020202020202066
:10006800732D2532750053656C54696D65722020B7
:1000780020202020202054696D6572257500546960
:100088006D65724E6F257520202020202020207459
:10009800696D653D25750057726974654E6F2575E4
:1000A8002020202020202020746F4D656D6F7279EC
:1000B8000057726974654E6F257520202020202016
:1000C80020204F6B00456E61626C65202020202047
:1000D8002020202020746573744D6F646500456E80
:1000E80061626C652020202020202020546D6F64E0
:1000F80065204F6B00504F5254204E6F25752020BD
:1001080020202020202053776974636800504F52C4
:1001180054202020202020205377697463684F6B77
:10012800004D656E75203720004D656E75203820AE
:10013800004D656E75203920004D656E7520313093
:10014800004D656E75203131004D656E7520313278
:10015800004D656E752031330050756C73654765C9
:100168006E20202020202020204F4E2534754F421D
:100178000050756C736547656E2020202020202074
:10018800204F46462020202020005265737461725B
:10019800742020202020202020636C6F636B005285
:1001A8006573746172742020202020202020636CE5
:1001B8006F636B2D4F6B00566F6C746D6574722096
:1001C8002020202020202025312E3366566F6C00F9
:1001D8005072657373656420627574746F6E202045
:1001E8002025580080C0070060013E00110067010B
:1001F800450011007801450006000800380002009B
:100208008B01EC010000F894EE27ECBBF1E0FBBF9A
:10021800EBBFE5BFF8E1F1BDE1BD8DE0A2E0BB2792
:10022800ED938A95E9F780E094E0A0E6ED930197D5
:10023800E9F7EEEEF1E085919591009761F0A591CF
:10024800B59105901590BF01F00105900D920197A9
:10025800E1F7FB01F0CFEFE5EDBFE4E0EEBFC0E66C
:10026800D1E095C08A93EA93EFB7EA9344B055B0CA
:10027800E7E4E7B985E38A95F1F7369AE991EFBFA4
:10028800E99189911895EA93FA93E0E0F0E0FDBDD1
:10029800ECBDC298F991E9911895EA93FA93EFB7F2
:1002A800EA93ECB5FDB53496FBBDEABDC29AE99177
:1002B800EFBFF991E9911895E6B3E3708E2E992472
:1002C800A814B90469F1F501E230A0E0FA0741F495
:1002D80091D409F494D4082C092809F494D41FC0A3
:1002E800309739F499D409F48AD49BD409F48BD47F
:1002F80016C0E130A0E0FA0741F4082C092809F4F7
:100308007ED478D409F47FD40AC0E330A0E0FA0799
:1003180031F487D409F473D47FD409F474D4540124
:10032800E4E0F0E0CE16DF0628F0E881E150E8834B
:10033800CC24DD24A0918901B0918A01149740F062
:10034800E881EF5FE883E0E0E0938901E0938A01C8
:10035800E88139C46BD46AD4D6D16DD41C96AC91DB
:10036800A73679F468D41D96AC91A53651F463D4B8
:100378001E96AC91A23729F45ED41F96AC91A23692
:1003880021F054D453D4BFD1E8CF24960895EF97E1
:10039800279700E030E020E0E3E0E8BBE4E0E7BBDB
:1003A800EFE3E5BBE0E0E4BBE2BBE1BBE3BFE2BFF8
:1003B800EFBDEEBDEDBDECBDE7BDE6BDEBBDEABDF5
:1003C800E9BDE8BDE2BDE5BDE4BDE3BDE5BFE9BF0C
:1003D800EAB9E0E8E8B9E0E0E0BFE7B9E6B9EDB9C5
:1003E800E6BFE0E1EA93C7D3DAD1EAE0F0E026D449
:1003F800A4D4E0E6F1E022D4AFD3789413B321D4A7
:10040800E4E4F0E021D4E12F24D4EF70F070EC3074
:10041800A0E0FA0789F4E7E6F1E01DD412D4E6E596
:10042800F0E00CD4EAA11CD4EFA11AD4ECA518D49E
:100438008CE000D3609644C1E430A0E0FA0771F480
:100448000A933ADF0E2F0A3F08F000E0083008F060
:1004580007E0F7D3EEE6F0E008D42EC13097E1F4D8
:1004680015FF02C008D451F4E8E7F1E0F4D3E02F17
:10047800F0D3DE015596AE0FBF1F7C907A921CDF39
:100488007E2EDFD3E6E8F0E0F0D35FD5E72DE8D3A2
:1004980088E0D0D22C9614C1E830A0E0FA07C9F45D
:1004A800D0D3EFE9F0E0E1D3E9D315FF02C0E3D3FD
:1004B80079F4E9D3E4E7E987FE013A960083FE017F
:1004C8003B967082EBD3BDD3E9EBF0E0CED3D6D325
:1004D800F7C0EA30A0E0FA0789F4B3D3EDECF0E016
:1004E800B3D315FF02C0C7D341F4CDD3E5E6E987FE
:1004F800D5D3A7D3E6EEF0E0A7D3E2C0E230A0E080
:10050800FA0711F53A93D8DE3E2F3A3F08F030E06B
:10051800343008F033E095D3EDEFF0E08FD3E32FDC
:1005280098D33196DAD4AAD315FF02C0A4D359F4CC
:10053800AAD3E3E7E987FE013A963083AFD381D3A4
:10054800E5E1F1E081D3BCC0E630A0E0FA0729F488
:1005580078D3E9E2F1E078D3B3C0EE30A0E0FA074F
:1005680029F46FD3E1E3F1E06FD3AAC0EF30A0E044
:10057800FA0729F466D3E9E3F1E066D3A1C0ED30C8
:10058800A0E0FA0729F45DD3E1E4F1E05DD398C077
:10059800E530A0E0FA0729F454D3E9E4F1E054D3B4
:1005A8008FC0E130A0E0FA0729F44BD3E1E5F1E090
:1005B8004BD386C0E930A0E0FA0729F442D3E9E535
:1005C800F1E042D37DC0EB30A0E0FA07E9F515FF72
:1005D80002C051D3E9F4203089F4E1E07E2E21E015
:1005E800EEB5E560EEBDEDE0FDE3FBBDEABDE9E09B
:1005F800FDE3F9BDE8BDE9B7E86109C020E0EFB562
:10060800EF7EEFBDEEB5EA7FEEBDE9B7E77EE9BF65
:100618007A9252DE7E2EE72D1CD3A9E0BDE375D475
:10062800F9BDE8BD203059F00CD3E1E6F1E006D37E
:10063800A72DECE3EA9FF00150D420D304C001D3E6
:10064800E9E7F1E001D33CC0E330A0E0FA0789F420
:10065800F8D2E2E9F1E0F8D215FF02C00CD341F478
:1006680012D3E3E6E9871AD3ECD2E7EAF1E0ECD259
:1006780027C0E730A0E0FA07B9F4E7E4E7B9ECEC03
:10068800E6B9F2016627772793D3AAE0B7ED83EAA4
:100698009BE3BCD355D4D5D2EFEBF1E0CFD2EC81BC
:1006A800FD816E817F8108C0CCD2E8EDF1E0C6D231
:1006B800E3B3FF276627772748D484E0BBD1289681
:1006C80022D2EFD2EED211D2BCD246D297CEFFCFF1
:1006D800E1E0F0E0E9D20895E881E03011F0C39A52
:1006E80001C0C39870C2E881E03011F0C59A01C01A
:1006F800C59869C2B49B05C0E0E1E03011F0E1E0C3
:1007080001C0E0E0089528D400E0D0D2E5DF30E071
:10071800303188F5AE81BF81EE27A30FBE1F1C9133
:1007280020E02830F0F4C2D2DEDFD2DFA12FB0E023
:10073800E22FCAD3E07829F0E0E8E03011F0E1E0F8
:1007480001C0E0E0EA93C8DFC3DFABD2CCDFC0DF93
:10075800E02FEE0FEF93CEDFAF91EA2B0E2F2F5F36
:10076800E0CFE32FAC81BD8174D2EA0FFB1F008379
:1007780000E03F5FCDCFAC81BD815096E0E0EC93C7
:1007880095D2B1DFA5DF8DD2AEDF8BD2A5DFA0DF9A
:100798009FDF9EDF9DDF9CDFE6D328960895BB9AF6
:1007A800C398BC98B498BD9AC5980895D7D381D2F8
:1007B8001296BED33097F1F07CD27ED28F0130975B
:1007C80061F00230E0E01E07A0F0F80131978F01D8
:1007D800AA81BB811496ED93FC936BD212966FD2CB
:1007E8003197AC81A08365D2A3D3FF2312F061D2E5
:1007F80066D205C05ED2EFEFFFEFED93FC93B5D361
:10080800259608952697A6D310E0AC85BD85E0E02F
:10081800F0E0ED93FC93EA89FB893196EA8BFB8B38
:100828003197E4912E2FE03009F4FEC0E12FE0303B
:1008380031F4253211F411E001C047D2F4C0E1309F
:10084800A1F4253211F441D2EDC012E040E000E0FD
:100858002D3211F401E0E7C02B3211F44BE2E3C072
:10086800203211F440E2DFC002C0E23039F450E037
:1008780013E0203311F40068D6C003C0E33009F058
:10088800D2C0203310F02A3308F007C0AAE05A9FDC
:10089800502DE22FE0535E0FC6C0E22FE33639F445
:1008A8001CD21ED21AD2A481AA931ED2BBC0E3378F
:1008B80031F421D222D224D288D11E2F08C0E037A9
:1008C80051F419D21AD21CD28AD11E2F08600260A4
:1008D8000F7730E02EC0E43611F0E93611F40460E9
:1008E80002C0E53729F4E6E2F0E00DD215E00BC0CE
:1008F800E83511F4086003C0E83709F093C0E0E375
:10090800F0E001D214E002FF11C0F5D1F6D1FED11A
:10091800AB85AA232AF4EA85FB85CAD2F7D14DE232
:10092800403011F01F5F01C00B7F03C0E4D1E5D157
:10093800EDD100FD10C0151770F407FF08C002FFC5
:1009480004C00B7F242F115001C020E301C020E216
:10095800BCD15150F0CF312F01FF15C0303091F08C
:1009680003FF05C0EE81FF812591CDD105C0AE8181
:10097800BF812D91AE83BF83A8D1503009F051506B
:100988003150ECCF46C020E3EE81FF81D5D2E88715
:10099800F987EE81FF813296B6D1E885F985AA8577
:1009A800BB85AE17BF0748F02F5FA885B985EA85D4
:1009B800FB85EA1BFB0BAAD1F0CF2A3328F003FFF3
:1009C80002C0295F01C0295D04FD19C0213320F44C
:1009D800A885B985119709F409C0531710F000FFCD
:1009E80001C011C020E207FF0AC020E3006102FF36
:1009F80006C00B7F4A9378D1503009F0515065D129
:100A0800503009F051503150A885B985129708F037
:100A1800BACF00FF07C0503029F05150E0E2EA9306
:100A280063D1F9CF10E0F7CEAC85BD8581D299D2DC
:100A380064960895FF92F82E26978ED26AD1309741
:100A480019F4EFEFFFEF1DC0DE0116962DD28D01D0
:100A580060D159D1E0E0E887E987DE011A9624D20F
:100A680067D2ECD01A930A93EAEDF3E0E7D0FE01DF
:100A78003A96E4D0C7DE9F01AE81BF81E0E0EC93F7
:100A8800F90171D22A96FF900895E881E07111F07A
:100A9800949A01C09498E881E07211F0959A01C087
:100AA8009598E881E07411F0969A01C09698E881CB
:100AB800E07811F0979A01C097988BE08A95F1F742
:100AC800929A8BE18A95F1F792988BE18A95F1F7E2
:100AD8007AC0E88123D1E881E295E883E8811ED1D4
:100AE80088EC90E00197F1F76EC0E881B2D0E55745
:100AF800FE4FE081A981EA0F13D16980E881E09374
:100B08008F0122960895E2E00BD1E3E0F0E0CCD02B
:100B1800ECE006D1CBD0DDDFE3E0F0E0C5D0E0E0EB
:100B2800E0938F016E2E0895A881AA3021F0E091FC
:100B380090016E1658F0B5D0E0918F01EF5FE09309
:100B48008F01EA93D2DFA881AA30E9F16394909AE1
:100B5800E881E6D0909837C01A93A981BA81ED91BF
:100B6800A983BA831E2FE03019F01A93DDDFF5CF81
:100B78001881239608958C9A8D9A8E9A8F9A8A9ABC
:100B8800889A899A929890989198E881E093900130
:100B9800E058E0938D01E881E054E0938E01E4E1B0
:100BA800F0E082D0E0E3BAD0BDD0BCD0C1D0E0E262
:100BB800B5D0BED0E8E2B4D0E4E0B2D0E5E8B0D039
:100BC800E6E0AED0A0DF21960895A991B991EE276D
:100BD800FF276D91662311F03196FBCF0895AA2760
:100BE800BB27E991F9910590002011F01196FBCFF0
:100BF800FD010895E3E0F0E0E815F9050895F60130
:100C080031966F010895A9E8B1E0ED91FD91319613
:100C1800FE93EE9331970895E2E0F0E0E815F905C8
:100C28000895E1E0F0E0E815F9050895EA81FB810F
:100C3800FA93EA930895A881B9810895FA93EA93FB
:100C48000895FE01B696FACFF9DF80E0F3DE249628
:100C58000895F0E00895F2DFFE017796EFDF7ACB92
:100C6800FF276627772771D10895E8DFE02FF1DFA6
:100C7800319633D10895E0E2E030089566D184E0FA
:100C8800D9DE28960895E7E7EC83E2E7ED83E9E605
:100C9800EE83E4E7EF83E5E6E8870895FE013496FE
:100CA800DACFE0E0EA930895C9DF47C0E1E0EA93CC
:100CB8000895AA81BB81089514963AD10895ED91BB
:100CC800FD913196FE93EE9308952A93ED85FE8566
:100CD800B5DFE989FA8909950895E889F9890895B8
:100CE8003497E88BF98B0895ED85FE85A7DFE989B0
:100CF800FA8909950895F1DFF3CFA889B989DCCF7E
:100D0800EE83FF839BCFEE83FF830895EA87FB87FB
:100D18000895DE011C96C8D00BD10895EA93B5CE8C
:100D2800EA93D7CE80E991E00197F1F7E0E3F6CFB7
:100D380080E991E00197F1F70895E991F9913096EA
:100D480039F080EA9FE00197F1F7A8953197C9F744
:100D58000895552342F4503811F4E0FF04C0319649
:100D6800691F791F6BF050E8572711F45F933CC057
:100D78005F3F31F0660F000C57956795752F089502
:100D88005F9300200AF03CC035C050E8192E1522A8
:100D9800880F991F9527550F879550E8072E05222C
:100DA800660F771F7527550F67950895689401C0DA
:100DB800E894309760407040B1F0002426F0772323
:100DC80012F4009479D0172E7EE1112032F07A9532
:100DD800EE0FFF1F661F111CF9CFEF2FF62F612DA5
:100DE8005F93C1DF5F910895EE27FF276627772776
:100DF8005F910895EFEFFFEF6FE77FEF5F91089541
:100E0800EFEFFFEF6FE77FE75F9108955F93BDDF37
:100E1800703851F3903841F301240894791F23F472
:100E28001CF300203AF3ECCF0F921F932F933F93BC
:100E38004F93112722279927689FA0018F9F302D54
:100E4800410D591F6B9F300D411D591F8E9F27D093
:100E5800BF9F25D06A9F23D0BE9F1DD0AF9F1BD0B8
:100E6800AE9F110D291F391F491F591FE32FF42F5A
:100E7800652F522F4F913F912F911F910F9066230D
:100E88002AF0550FEE1FFF1F661F02C073954BF225
:100E980060DF5F910895100D211D391F02C0200DDC
:100EA800311D491F591F08950024AF0DB01D089525
:100EB800F195E195F0400895F09560957095E1956C
:100EC800FF4F6F4F7F4F0895EE230E2EFD0121F047
:100ED800EE0FFF1F0A94E1F708956F2F660F660B58
:100EE800762F08950024112490E1AA0FBB1F001C3F
:100EF800111C0E1A1F0A18F40E0E1F1E01C0A16045
:100F08009A9599F7FD01D001089504D0EBDF0EF40E
:100F1800CFDF0895E894F7FF02C0CADF6894B7FFEF
:100F280006C0A095B095119600F8039400FA0895AC
:100F3800ED91FC91119708950590F491E02D089595
:100F4800E883F9836A837B8308957A936A93FA9393
:100F5800EA9308955A934A933A932A931A930A93D1
:100F680008955D814C813B812A811981088108950A
:00000001FF
