:06000000F9C0FECFFDCFA8
:10000600FCCFFBCFFACFF9CFF8CFF7CFF6CFF5CFAE
:10001600F4CFF3CFF2CF17C1F0CFEFCFEECFEDCFC6
:10002600000000000000537461727421002020203B
:10003600202020202020202020202020200054695D
:100046006D6520666F7220474D2020202020682D88
:100056002575206D2D257520732D25750053656C2E
:100066006563742074696D657220202020205469B0
:100076006D657225750054696D65722065646974D5
:10008600206E6F2575545425750057726974652066
:1000960074696D6572206E6F257520746F206D65AD
:1000A6006D6F72790057726974652074696D657237
:1000B600206E6F257520746F206D656D6F727920C7
:1000C6002D204F6B00456E61626C652074657374FC
:1000D600206D6F6465202D2073656B00456E61622F
:1000E6006C652074657374206D6F6465202D2073B4
:1000F600656B202D204F6B0053656C656374205033
:100106004F525420666F7220207377697463682D8E
:10011600504F5254257500504F525420535749544E
:100126004348204F6B004D656E75203720004D65A6
:100136006E75203820004D656E75203920004D659E
:100146006E75203130004D656E75203131004D657C
:100156006E75203132004D656E75203133004D6568
:100166006E75203134005265737461727420636C4D
:100176006F636B005265737461727420636C6F6396
:100186006B202D204F6B00566F6C746D6574657215
:10019600206D656761382025312E336620202020AA
:1001A600566F6C7400507265737365642062757463
:1001B600746F6E002D4E414E000080C001002D4E22
:1001C600414E00494E460000060008002600070082
:1001D60060012C0011006701330011007801330023
:1001E60002008B01C00101009101C2010000F894D8
:1001F600EE27ECBBF1E0FBBFEBBFE5BF8DE0A2E075
:10020600BB27ED938A95E9F780E094E0A0E6ED93AD
:100216000197E9F7EEECF1E085919591009761F091
:10022600A591B59105901590BF01F00105900D922D
:100236000197E1F7FB01F0CFEFE5EDBFE4E0EEBF9C
:10024600C0E6D1E079C08A93EA93EFB7EA9344B067
:1002560055B0E7E4E7B985E38A95F1F7369AE9916F
:10026600EFBFE99189911895AA93E6B3E3708E2EB4
:100276009924A814B90469F1F501E230A0E0FA075F
:1002860041F44FD609F452D6082C092809F452D65F
:100296001FC0309739F456D609F448D658D609F413
:1002A60049D616C0E130A0E0FA0741F4082C092827
:1002B60009F43CD636D609F43DD60AC0E330A0E0B0
:1002C600FA0731F444D609F431D63CD609F432D6CD
:1002D6005401E4E0F0E0CE16DF0628F0E881E150B4
:1002E600E883CC24DD24A0918901B0918A0114977A
:1002F60040F0E881EF5FE883E0E0E0938901E09376
:100306008A01E88122C528D62AD630D61C96AC9119
:10031600A73679F42BD61D96AC91A53651F426D680
:100326001E96AC91A23729F421D61F96AC91A2361F
:1003360011F015D6EACF6CC5EF97279700E030E0AD
:10034600E3E0E8BBE0E0E7BBEFE3E5BBE0E0E4BB0E
:10035600E2BBE1BBE3BFE2BFEFBDEEBDEDBDECBD71
:10036600E7BDE6BDEBBDEABDE9BDE8BDE2BDE5BD65
:10037600E4BDE3BDE5BFE9BFEAB9E0E8E8B9E0E01E
:10038600E0BFE7E4E7B9ECECE6B9E0E0EDB9E6BFDB
:10039600A0E1B3D493D1AAE0ECD5A0E6B1E09DD418
:1003A600A0EDB7E03CD7789413B3E5D5E2E3F0E0EF
:1003B600E7D5E9D5E12FF0E0EF74F070EC30A0E07E
:1003C600FA0789F4E7E6F1E0E2D5D5D5E4E4F0E012
:1003D600D7D5EAA1E0D5EFA1DED5ECA5DCD58CE03A
:1003E60000D46096FAC0E430A0E0FA0779F4A02FB2
:1003F6003BDF0E2F0A3F08F000E0083008F007E068
:10040600BAD5E3E6F0E0CCD5D2D5E7C03097D9F43B
:1004160015FF02C0D0D551F4E8E7F1E0B8D5E02FDA
:10042600F0E0DE015596AE0FBF1F7C90A72D1CDFB6
:100436007E2EA1D5ECE7F0E0B3D5E72DACD588E06C
:10044600D0D32C96CAC0E830A0E0FA07C9F493D5F9
:10045600E0E9F0E0A5D5ABD515FF02C0ACD579F43F
:10046600ADD5E4E7E987FE013A960083FE013B96A7
:100476007082AFD580D5EBEAF0E092D598D5ADC0C5
:10048600EA30A0E0FA0789F476D5EBECF0E0A4D5E3
:1004960015FF02C090D541F491D5E5E6E98799D5D7
:1004A6006AD5E2EEF0E098D598C0E230A0E0FA070F
:1004B60019F5A32FD9DE3E2F3A3F08F030E034304D
:1004C60008F033E058D5EEEFF0E05AD5E32FF0E030
:1004D600319673D8E4D86BD515FF02C06CD559F4A4
:1004E6006DD5E3E7E987FE013A96308372D543D5A9
:1004F600EDE1F1E071D571C0E630A0E0FA0721F434
:100506003AD5ECE2F1E066C0EE30A0E0FA0721F45D
:1005160032D5E4E3F1E05EC0EF30A0E0FA0721F463
:100526002AD5ECE3F1E056C0ED30A0E0FA0721F45D
:1005360022D5E4E4F1E04EC0E530A0E0FA0721F46C
:100546001AD5ECE4F1E046C0E130A0E0FA0721F468
:1005560012D5E4E5F1E03EC0E930A0E0FA0721F467
:100566000AD5ECE5F1E036C0EB30A0E0FA0721F45D
:1005760002D5E4E6F1E02EC0E330A0E0FA0789F404
:10058600FAD4ECE6F1E028D515FF02C014D541F403
:1005960015D5E3E6E9871DD5EED4EAE7F1E01CD5EB
:1005A6001CC0E730A0E0FA0791F4F201662777272E
:1005B600ACD6AAE0B7ED83EA9BE331D70FD5DBD4FF
:1005C600EDE8F1E0DDD40CD56AD8F1D406C0D3D479
:1005D600EBEAF1E0FA93EA93D6D456D3E0E0EA9355
:1005E600A0E043D3DE01969678D3DECEFFCFA1E01E
:1005F600C0D40895AA93E881E03011F0C39A01C0EF
:10060600C398A3C3AA93E881E03011F0C59A01C04C
:10061600C5989BC3B49B05C0E0E1E03011F0E1E072
:1006260001C0E0E0089598D457D800E0A1E0E2DFE9
:1006360030E0303180F5D9D4EE27A30FBE1F1C91D0
:1006460020E02830F0F4A1E0DDDFD1DFA12FB0E01B
:10065600E22FA4D7E07829F0E0E8E03011F0E1E0FD
:1006660001C0E0E0AE2FC6DFC2DFA0E0CBDFBFDF18
:10067600E02FEE0FEF93CEDFAF91EA2B0E2F2F5F19
:10068600E0CFE32FAC81BD81F0E0EA0FFB1F0083D2
:1006960000E03F5FCECFAC81BD815096A9D4A1E0EA
:1006A600B1DFA5DFA0E0AEDFA0E0A4DFA0DF9FDF23
:1006B6009EDF9DDF9CDF17D828960895BB9AC398C6
:1006C600BC98B498BD9AC598089546D407D893D4D3
:1006D6001296CCD73097F1F08ED490D48F01309704
:1006E60061F00230E0E01E0770F0F80131978F01EB
:1006F600AA81BB811496ED93FC937DD4129681D486
:100706003197AC81A08377D4B1D7FF2312F073D48D
:1007160078D405C070D4EFEFFFEFED93FC93E5D7E7
:100726002596089574D4E0E8EA83EFE3EB83D4D703
:10073600EE85FF85EF3FAFEFFA0739F4E885F985D7
:100746001FD4AAEBB1E003D37BC0EF3FAFE7FA07B4
:1007560031F463D415D4ABEBB1E0F9D271C0AB85FB
:10076600A73010F0E6E0EB871B855AD411F05CD475
:10077600FCCF68D4ABD719F430E056D41BC03B8508
:1007860066D409F008F407C04FD461D418F066D4D3
:100796006AD4FBCF08C05BD428F460D46FD474D479
:1007A6003150F9CF41D44ED474D46ED450D410F015
:1007B60055D459D410E0EB85E11718F170D474D4F0
:1007C60068D4DF01CB0116D3EC83FD836E837F8370
:1007D60007D444D472D660D50E2F6CD472D4FF27BA
:1007E6006627772792D55BD41AD638D462D7C0D578
:1007F6004BD4E12F1F5FE030F1F65CD4EEE2EC93D0
:10080600DACF64D43197AA85A08330302CF43195A1
:10081600A885B985EDE203C0A885B985EBE2EC931E
:1008260055D454D458D4DCD6E05DDB01EC934ED4D9
:1008360052D400D7E05DDB01EC93A885B985D8D307
:1008460052D76096089588D3EF97619743D710E003
:10085600FE01E85AFF4F0190F081E02DE887F98705
:10086600FE01EA5AFF4F0190F081E02DEE83FF83EF
:10087600BCD3E0E0F0E0ED93FC93DE01A45ABF4F59
:10088600C0D33197E4912E2FE03009F4A4C1E12FB3
:10089600E03031F4253211F411E001C021D49AC1BF
:1008A600E130B9F4253211F41BD493C112E0E0E033
:1008B600ED8B00E02D3211F401E08CC12B3219F4DE
:1008C600EBE2ED8B87C1203219F4E0E2ED8B82C1B9
:1008D60002C0E23039F450E013E0203311F400682E
:1008E60079C102C0E33091F4203310F02A3308F0C6
:1008F60007C0AAE05A9F502DE22FE0535E0F6AC14F
:1009060040E02E3211F414E065C10FC0E43099F4D2
:10091600203310F02A3308F008C00062AAE04A9F8C
:10092600402DE22FE0534E0F55C12C3619F40260CC
:1009360015E050C103C0E53009F04CC1E22FE336A3
:1009460039F4D5D3DBD3D3D3A481AA93DED341C163
:10095600E53411F0E53609F402C0E636A9F5DBD335
:10096600DFD388D6E4D3E8D3AD85AA2332F0AD89A8
:10097600AB3241F0A03261F012C0E0D35AD4D7D3E3
:10098600EDE2ED8B07FF04C0ED89EA93BED307C005
:10099600EE85FF853196D7D33197AD89A08305FFC4
:1009A60046E0263639F4CAD37AD64A93AB89BC894F
:1009B60031D207C0C3D373D64A932A93AC89BD8973
:1009C600B1DEA9D3C3D318C0E33729F4B5D3C3D353
:1009D600BAD3BCD30AC0E037A1F4AED3BCD3B3D3E9
:1009E600AE85BF85CBD11E2F08600F77403011F042
:1009F600411708F001C0142F40E0E0E0EC8B30E036
:100A06005EC0E43611F0E93611F4046002C0E53741
:100A160091F4EAE0EC8B01FF07C0E0E0FAEC6AE94A
:100A26007BE39BD31AE01FC0E0E1F7E260E070E0F1
:100A360094D315E018C0E83511F4086003C0E83710
:100A460009F0C7C0E0E1EC8B01FF07C0E0E0F0E091
:100A560060E070E182D318E006C0E0E0F0E160E01B
:100A660070E07BD314E0403011F00F7701C041E015
:100A760001FF05C061D354D31496FCD50AC002FF0A
:100A860004C05AD368D399D504C056D364D3662715
:100A96007727EA87FB876C877D8702FF0FC0AD85C6
:100AA600AA232AF44BD372D542D3EDE2ED8BED891E
:100AB600E03019F01F5F4F5F01C00B7F342F00FD40
:100AC60013C0151710F4351708F00EC007FF08C03D
:100AD60002FF04C00B7F2D89115001C020E301C025
:100AE60020E2FED25150EDCF141780F4006102FFD0
:100AF60005C038D309F0515011504150E0E3EA9354
:100B060004D3503009F051504150EECF312FEC89CB
:100B1600E030A9F4303091F003FF05C0EE85FF8583
:100B2600259111D305C0AE85BF852D91AE87BF87B0
:100B3600D7D2503009F051503150ECCF41C024D3B8
:100B460054D52E2F2A3030F003FF02C0295C01C095
:100B5600295A01C0205D04FD1DC0213348F41DD370
:100B6600A130E0E0BE07E0E08E07E0E09E0709F472
:100B76000BC0431740F4531710F000FF01C00EC01E
:100B860020E207FF07C020E3006102FF03C0EAD2AC
:100B960009F05150A5D2503009F051503150F4D2DD
:100BA60055D5C5D2EC89F9D2FF27662777271DD5FB
:100BB600D4D2E889F9896A897B8988D509F0BFCFBB
:100BC60000FF07C0503029F05150E0E2EA939DD271
:100BD600F9CF10E052CE09D249D583D5EF966F965C
:100BE6000895FF92F82E269777D5DCD2309719F420
:100BF600EFEFFFEF1BC0DE011696C4D48D01D2D2F3
:100C0600EE83FF83E0E0E887E987DE011A96BAD42F
:100C16002DD5B6D11A930A93E8E6F3E0B1D1DE01F9
:100C26001A9611DE9F01E1D1E3D1F9015CD52A962E
:100C3600FF900895AA93E2B3EF70AE2FE881E07FAC
:100C4600EA2BE2BBB4D2929AB2D29298B0D27DC0CD
:100C5600AA93A881EFDFE881E295E883A881EADF1D
:100C660088EC90E00197F1F770C0AA93E881F0E074
:100C7600E557FE4FE081A981AE0FEADF6980E88182
:100C8600E0938F0122960895A2E0E2DFA3E071D1FE
:100C9600ACE0DEDFA1E0DCDFA3E06BD1E0E0E093D7
:100CA6008F016E2E0895AA93A881AA3021F0E091B3
:100CB60090016E1660F0E0E0EA93A0918F01AF5FBD
:100CC600A0938F01D2DFA881AA3009F43EC06394B5
:100CD600909AA881BDDF909838C03ED11A93A98119
:100CE600BA81ED91A983BA831E2FE03019F0A12FA6
:100CF600DADFF5CF188123960895AA93E1B3E06F62
:100D0600E1BB8A9A889A899A929890989198E881F4
:100D1600E0939001E058E0938D01E881E054E09380
:100D26008E01A4E126D147D246D245D2A0E282DF87
:100D360080E991E00197F1F7A8E28ADFA4E088DF75
:100D4600A5E886DFA6E084DF9FDF2196089504D11B
:100D5600E991F991A991B991CD0105900D920020E3
:100D6600E1F7FC010895F8D0A991B991EE27FF2784
:100D76006D91662311F03196FBCF0895EDD0AA2729
:100D8600BB27E991F9910590002011F01196FBCF50
:100D9600FD01089589D47B816A81F981E88177FB19
:100DA600770F67FD7160972F9E5781F078F0983125
:100DB60090F4AA27BB27882708948795B795A79507
:100DC6009A95D1F7EA23FB23682305C0E894772791
:100DD600EE27FF2766276F77769508F4606877F920
:100DE600A991B99189919991EA17FB076807790743
:100DF60097FB089559D449D4CDDFF0D011F4E2D150
:100E060007C0EEF7DFD1A0E0B0E080E89FE3B0D204
:100E160024960895FCD0E0E0EA83EFE3EB835ED40A
:100E2600EB85FC85EF3FAFEFFA0729F4CDD1A4ECB3
:100E3600B1E08DDF73C0EF3FAFE7FA0729F4C4D105
:100E4600A5ECB1E084DF6AC0AC85AA2332F4BFD139
:100E5600F0D1C2D1C6D1EDE2EC93A885A73010F04F
:100E6600E6E0E8871885DCD021F0C1D11DD1C4D1D8
:100E7600FACFC7D184D2B0D110E0E0E0F0E060E86C
:100E86007FE3BAD1BED15ED360F0B1D1F7D0B4D191
:100E96001F5F173228F098D1A9ECB1E058DF3EC0A9
:100EA600F1CF103021F49DD1E0E3EC9319C0B8D016
:100EB600B9F09DD1F9D0EDD0DF01CB019BDF9CD1FC
:100EC600A0D1FBD2E9D10E2F8CD1FBD0F0E08FD18F
:100ED60074D31BD2A4D29ED1ECD34AD27DD1E7CF14
:100EE600E885E030C1F07DD1EEE2EC93E885E15093
:100EF600E887EF5F81F08ED1C1D06ED168D1CCD1B9
:100F06000E2F6FD1DED0F0E085D157D3FED1D1D3ED
:100F16002FD262D1EBCFAE81BF816AD0E6D32D96B8
:100F26000895E3E0F0E0E815F9050895F601319635
:100F36006F010895A9E8B1E0ED91FD913196FE9318
:100F4600EE930895E2E0F0E0E815F9050895E1E092
:100F5600F0E0E815F9050895BA93AA930895EA8191
:100F6600FB81FA93EA93AA81BB815DCBA881B98103
:100F76000895B0E054C1FE01B696FA93EA93089537
:100F8600FA93EA93089580E02CDE24960895F8DF1C
:100F9600DE015796B8C9FF276627772780D30895BD
:100FA600EFDFE02FF0E0319608D379D3089584E09F
:100FB60018DE28960895E0E2E0300895E7E7EC832E
:100FC600E2E7ED83E9E6EE83E4E7EF83E5E6E8872B
:100FD6000895FE013496DBCFD3DFD5CF5BD30895DA
:100FE600EC81FD816E817F810895AE81BF81089578
:100FF600E0E0EC930895AA81BB810895149636D358
:101006000895ED91FD913196FE93EE930895A4DF38
:101016002497E0E0E883E9830895E885F985089553
:10102600E12F1150E0300895AC81BD818E819F8102
:10103600E0E0F0E060E271E4F2D1EC83FD836E83E0
:101046007F830895EC85FD856E857F850895C8DFCD
:10105600AC85BD858E859F8575D20895AC85BD8589
:101066008E859F850895EDECFCEC6CEC7DE3D7D185
:10107600EC87FD876E877F873F5F0895E0E0F0E0AD
:1010860060E271E4CCD10895EC87FD876E877F8797
:101096000895A0E0B0E080E09FE371D10895AC81AF
:1010A600BD818E819F810895EDECFCEC6CEC7DE3B7
:1010B600B6D10895A885B9851196A887B9871197DD
:1010C6000895E02FE05DEC93E02F0895A6DF3196BA
:1010D600E887F98708953197BF01A32FEAE00895BD
:1010E6002A93AF81B885E985FA8509950895FE01A9
:1010F600E65AFF4F0190F081E02D08953497DE0106
:10110600A65ABF4FED93FC930895AF81B885E98544
:10111600FA8509950895FE017696EE87FF8708956C
:10112600DE01A65ABF4F0D90BC91A02D0895EA8707
:10113600FB876C877D870895DADFE0CFEA85FB853C
:101146006C857D850895EE87FF870895AE85BF85FA
:101156000ADE1E2F0895E4DF51CFE88BF98B6A8BE8
:101166007B8B08950B7FED89EA93DE01A95ABF4F69
:101176000D90BC91A02DFE01E75AFF4F0190F08122
:10118600E02D099550300895E889F9896A897B89A7
:10119600AA85BB858C859D850895A889B9898A8984
:1011A6009B890895DE011C96EDD160D208958BE1EE
:1011B6008A95F1F70895A0E33DDD80E991E0019776
:1011C600F1F708955DD20895EE81FF81D9CEE985C4
:1011D600FA856B857C850895E987FA876B877C8716
:1011E600089503DF1196AE83BF8311970895AA81F0
:1011F600BB818C819D810895EA83FB836C837D830B
:101206000895EA81FB816C817D81A985BA858B85EC
:101216009C850895A985BA858B859C850895109629
:1012260039F080EA9FE00197F1F7A8951197C9F781
:10123600089530976040704009F07058089555231E
:1012460042F4503811F4E0FF04C03196691F791F4B
:101256006BF050E8572711F45F93CFC05F3F31F032
:10126600660F000C57956795752F08955F930020BC
:101276000AF0CFC0C8C050E8192E1522880F991F52
:101286009527550F879550E8072E0522660F771F7D
:101296007527550F67950895689401C0E8945F9384
:1012A600F2DF703818F07F3F08F4A7C056E1571BED
:1012B600AAF4519558300EF4593030F0EFEFFFEFA5
:1012C6006FEF7FE777F91AC077275523B9F0EE0F4E
:1012D600FF1F661F771F5A95D1F710C07727583022
:1012E60028F0EF2FF62F672F5850F9CF552331F0FE
:1012F60076956795F795E7955A95D1F700200AF404
:1013060045D15F910895689401C0E8943097604094
:101316007040B1F0002426F0772312F4009436D101
:10132600172E7EE1112032F07A95EE0FFF1F661F11
:10133600111CF9CFEF2FF62F612D5F938ADF5F9196
:1013460008954F93AF01FD01DA01AB01BC01CA015B
:10135600402D012C142E4F910895EA0FFB1F681F94
:101366000895E095F0956095EF5FFF4F6F4F0895F4
:101376005F9381DF903871F150E8152604C05F93C2
:101386007ADF903839F1703821F1572F591B2BF13C
:1013960012F4D7DFFACF583118F0AA27BB278827CF
:1013A600583028F0AB2FB82F88275850F9CF55233F
:1013B60029F08695B795A7955A95D9F7502D5125B9
:1013C60072F0CBDF38F46795F795E795739513F4CC
:1013D60020C0B7DF3EDF5F910895D8F7FBCFEA1B49
:1013E600FB0B680B51F010F40094BBDF662392F3FD
:1013F600EE0FFF1F661F7A95CBF7EE27FF276627AE
:1014060077275F910895EFEFFFEF6FE77FEF5F912B
:101416000895EFEFFFEF6FE77FE75F9108955F9322
:101426002ADF703851F3903841F301240894791F6C
:1014360023F41CF300203AF3ECCF0F921F932F9363
:101446003F934F93112722279927689FA0018F9FCB
:10145600302D410D591F6B9F300D411D591F8E9F19
:1014660027D0BF9F25D06A9F23D0BE9F1DD0AF9F98
:101476001BD0AE9F110D291F391F491F591FE32F7E
:10148600F42F652F522F4F913F912F911F910F905F
:1014960066232AF0550FEE1FFF1F661F02C07395C5
:1014A6004BF2CDDE5F910895100D211D391F02C04C
:1014B600200D311D491F591F08955F93DCDE7038DA
:1014C60021F411200AF49FCFA4CF903809F495CFC8
:1014D60001240894970B1BF4D4F30020F3CF792F43
:1014E6001F932F933F934F931124112722273327BE
:1014F6004427552790E2AE17BF078607410730F00D
:10150600AE1BBF0B860B410B089401C08894551F78
:10151600221F331F111CAA1FBB1F881F441F9A9529
:1015260051F7F901612D4F913F912F911F9166233C
:1015360032F0550FEE1FFF1F661F7A9543F27FDECE
:101546005F91089599239AF0772342F0971748F010
:1015560029F4AE17BF07860720F031F098948894D7
:101566000895989408940895189488940895772374
:10157600C2F7971798F3A9F7EA17FB07680788F3E6
:1015860099F3ECCF0024AF0DB01D0895F09560954A
:101596007095E195FF4F6F4F7F4F0895EE230E2E06
:1015A600FD0121F0EE0FFF1F0A94E1F70895FE2FCB
:1015B600FF0FFF0B6F2F7F2F08956F2F660F660BA0
:1015C600762F0895002498E0AA0F001C0E1A10F436
:1015D6000E0E01C0A1609A95B9F7EA2FA02D0895C5
:1015E60039D0F0DF0EF4E19508953F934F935F9362
:1015F600002411244427552730E2AA0FBB1F881F59
:10160600991F001C111C441F551F0E1A1F0A460B5A
:10161600570B28F40E0E1F1E461F571F01C0A16050
:101626003A9559F7FD01BC01D001CA015F914F916E
:101636003F910895E894A7FF02C0A1956894E7FD3D
:10164600E195C0DFEA2F0EF4E1950895CEDFFD01A6
:10165600BC010895E894E7FF02C0E1956894A7FFEE
:1016660004C0A19500F8039400FA0895ED91FC9149
:1016760011970895ED91FD916D917C9113970895C1
:10168600E881F9816A817B810895A881B9818A817F
:101696009B810895E883F9836A837B8308957A930F
:1016A6006A93FA93EA9308959A938A93BA93AA93BC
:1016B6000895182E862F612D192E972F712D1B2E0A
:1016C600BF2FF12D1A2EAE2FE12D089530976040D1
:1016D600704008955A934A933A932A931A930A9319
:1016E60008955D814C813B812A8119810881089585
:00000001FF
