:060000008FC1FECFFDCF11
:10000600FCCFFBCFFACFC6C1CFC1F7CFF6CFF5CF26
:10001600F4CFF3CFF2CFADC1F0CFEFCFEECFEDCF30
:100026001027E80364000A00010000100001100018
:100036000100000000000000537461727421007218
:100046006820202020202020202020202020200082
:10005600682D2532756D2D25327520202020202013
:100066002020732D253275202532640053656C548B
:10007600696D6572202020202020202054696D653E
:100086007225750054696D65724E6F2575202020A6
:10009600202020202074696D653D25750057726902
:1000A60074654E6F25752020202020202020746F37
:1000B6004D656D6F72790057726974654E6F25755F
:1000C60020202020202020204F6B00456E61626C8E
:1000D6006520202020202020202020746573744D68
:1000E6006F646500456E61626C65202020202020CB
:1000F6002020546D6F6465204F6B00504F52542082
:100106004E6F2575202020202020202053776974EB
:10011600636800504F52542020202020202053771F
:10012600697463684F6B007274742020202020204D
:10013600202020202020200074313D2532752025E6
:100146007520202020202020202074323D25327565
:1001560000416464726573732020202020202020D3
:10016600205752495445204F6B00253258253258A6
:1001760025325825325820202020202020202532C4
:100186005825325820742532750073656C207465C5
:10019600726D2020202020202020257500485465DF
:1001A6006D7020202020202020202020205752491A
:1001B6005445204F6B00484C6576656C20542020D2
:1001C600202020202020253375202025337500533C
:1001D600656C2052656C20202020202020202025C0
:1001E6007554494D45520053656C2052656C20206C
:1001F6002020202020202025757465726D004C5427
:10020600656D70202020202020202020202057529D
:10021600495445204F6B004C4C6576656C20542044
:10022600202020202020202533752020253375000E
:1002360053656C2052656C20202020202020202031
:10024600253175204C4F5720746D0053656C205234
:10025600656C202020202020202020253175206854
:10026600692020746D0050756C736547656E20209B
:100276002020202020204F4E2534754F42005075F7
:100286006C736547656E20202020202020204F4675
:10029600462020202020005265737461727420204D
:1002A600202020202020636C6F636B0052657374DE
:1002B6006172742020202020202020636C6F636BE5
:1002C6002D4F6B00566F6C746D6574722020202064
:1002D6002020202025312E3366566F6C0050726523
:1002E6007373656420627574746F6E2020202558C0
:1002F600000080C0060008003800070060013E00CC
:1003060011006701450011007801450011008901BF
:100316002D0102009C01F8020000F894EE27ECBBC8
:10032600F1E0FBBFEBBFE5BF8DE0A2E0BB27ED939D
:100336008A95E9F780E094E0A0E6ED930197E9F766
:10034600EAEFF2E085919591009761F0A591B5915C
:1003560005901590BF01F00105900D920197E1F708
:10036600FB01F0CFEFE5EDBFE4E0EEBFC0E6D1E084
:100376009BC08A93EA93EFB7EA9344B055B0E7E49B
:10038600E7B985E38A95F1F7369AE991EFBFE991E6
:1003960089911895EA93FA93E0E0F0E0FDBDECBD93
:1003A600C298F991E9911895EA93FA93EFB7EA930F
:1003B600ECB5FDB53496FBBDEABDC29AE991EFBF37
:1003C600F991E9911895AA931A9310E0113108F062
:1003D6004EC0E6B3E3708E2E9924A814B90469F1D1
:1003E600F501E230A0E0FA0741F42CD509F42FD547
:1003F600082C092809F42FD51FC0309739F433D5B6
:1004060009F425D535D509F426D516C0E130A0E086
:10041600FA0741F4082C092809F419D513D509F46B
:100426001AD50AC0E330A0E0FA0731F421D509F461
:100436000ED519D509F40FD55401E4E0F0E0CE1637
:10044600DF0628F0E981E150E983CC24DD24A09180
:100456009A01B0919B01149740F0E981EF5FE9831F
:10046600E0E0E0939A01E0939B011F5FAFCFE98143
:1004760018816BC402D504D50AD51C96AC91A73653
:1004860079F405D51D96AC91A53651F400D51E9686
:10049600AC91A23729F4FBD41F96AC91A23611F089
:1004A600EFD4EACF24960895EF97279730E020E01F
:1004B60050E0E3E0E8BBE4E0E7BBEFE3E5BBE0E008
:1004C600E4BBE2BBE1BBE3BFE2BFEFBDEEBDEDBD0A
:1004D600ECBDE7BDE6BDEBBDEABDE9BDE8BDE2BDED
:1004E600E5BDE4BDE3BDE5BFE9BFEAB9E0E8E8B9CB
:1004F600E0E0E0BFE7B9E6B9EDB9E6BFA0E160D458
:1005060073D2AAE0C7D4A0E6B1E04AD4789403B384
:10051600C3D4E4E4F0E0C5D4C7D4E02FEF70EC30E8
:1005260099F4E7E6F1E0C4D4B7D4E6E5F0E0B9D44F
:10053600EAA1C2D4EFA1C0D4ECA5BED4EDA5BCD42B
:1005460080E1A1D36496DEC1E43071F4A32F3BDFD2
:100556003E2F3A3F08F030E0383008F037E09CD4C0
:10056600E2E7F0E0AED4C9C1E030D1F405FF02C045
:10057600ACD451F4E8E7F1E09BD4E32FF0E0DE01E0
:100586005596AE0FBF1F7C90A72D1DDF7E2E84D4FF
:10059600EAE8F0E096D490D4E72D8ED499D4B2C18F
:1005A600E830C9F479D4E3EAF0E08BD485D494D466
:1005B60005FF02C08AD471F493D4E4E79CD4308357
:1005C600FE013B9670829BD467D4EDEBF0E079D4C4
:1005D60073D482D497C1EA3089F45ED4E1EDF0E0B9
:1005E60091D405FF02C071D441F47AD4E5E6E987D7
:1005F60086D452D4EAEEF0E085D484C1E230E1F448
:1006060083D408F020E0243008F023E045D4E1E06C
:10061600F1E047D47ED460D405FF02C056D459F425
:100626005FD4E3E768D478D437D4E9E1F1E06AD45B
:10063600A8EEB3E0C5D466C1E630A1F4E9E8F1E07E
:1006460037D42AD4EEE3F1E02CD4EB8D35D4EFA5E4
:1006560033D4ECA131D48CE016D36096A8EBBBE082
:10066600AFD450C1EE3049F505FF02C02ED449F48F
:1006760037D4E1E640D450D40FD4E7E5F1E042D4D4
:100686001BC04CD4E1E6ED83E7E64BD445D404D455
:10069600E0E7F1E006D4EB8D0FD4E8A10DD4EDA18F
:1006A6000BD4EAA509D4EFA507D4ECA905D4E9AD86
:1006B60003D48CE1E8D2A09625C1EF3099F424D476
:1006C60008F020E0EE89E150E21718F4EE89E150D7
:1006D6002E2FE2D3E0E9F1E0E4D3E22FEDD3FCD311
:1006E60050E010C1ED3019F519D41FD4E8E620D436
:1006F60005FF02C0EAD349F4F3D3E8E6FCD30CD4F1
:10070600CBD3E3EAF1E0FED311C0103009F4F7D3FE
:100716001F5F503011F42E8951E0BED3ECEBF1E0AF
:10072600C0D3EA8DC9D3E22FC7D3D2D3EBC0E5300D
:1007360039F550E002D408F020E0243008F023E038
:10074600EDD3F3D3E2E7EDD32083103009F4D7D30A
:100756001F5FEE89E03021F09FD3E5EDF1E003C0A5
:100766009BD3EDEEF1E0FA93EA93D3D3B5D305FF2D
:1007760002C0ABD321F4B4D3E2E7BDD3CDD3C2C01C
:10078600E13019F5CBD3D1D3ECE6D2D305FF02C0C5
:100796009CD349F4A5D3ECE6AED3BED37DD3E4E037
:1007A600F2E0B0D311C0103009F4A9D31F5F503066
:1007B60011F42E8951E070D3EDE1F2E072D3EA8DA7
:1007C6007BD3E22F79D384D39DC0E93041F550E045
:1007D60050E0B3D308F020E0243008F023E09ED3A5
:1007E600A4D3E3E79ED32083103009F488D31F5F98
:1007F600EE89E03021F050D3E6E3F2E003C04CD3BB
:10080600E1E5F2E0FA93EA9384D366D305FF02C0EA
:100816005CD321F465D3E7E66ED37ED373C0EB30A9
:10082600D9F505FF02C051D3E9F4503089F4E1E06F
:100836007E2E51E0EEB5E560EEBDEDE0FDE3FBBDDD
:10084600EABDE9E0FDE3F9BDE8BDE9B7E86109C045
:1008560050E0EFB5EF7EEFBDEEB5EA7FEEBDE9B74E
:10086600E77EE9BFA72DAFDD7E2EF0E0A9E0BDE370
:100876008CD4F9BDE8BD503051F00ED3ECE6F2E071
:1008860010D3ACE37A9EF00117D326D304C004D369
:10089600E4E8F2E037D336C0E33089F4FDD2EDE97F
:1008A600F2E030D305FF02C010D341F419D3E3E6DA
:1008B600E98725D3F1D2E2EBF2E024D323C0E73077
:1008C600B9F4E7E4E7B9ECECE6B9F2016627772775
:1008D600B0D3AAE0B7ED83EA9BE3D9D371D4DCD2D7
:1008E600EAECF2E0DED2EC81FD816E817F8108C008
:1008F600D3D2E3EEF2E0D5D2E3B3FF27662777271C
:1009060064D4EAD224D2E0E0EA93A0E011D2DE0178
:10091600969646D2FCCDFFCFA1E0BCD20895AA930D
:10092600E881E03011F0C39A01C0C39872C2AA935D
:10093600E881E03011F0C59A01C0C5986AC2B49B3F
:1009460005C0E0E1E03011F0E1E001C0E0E008952B
:1009560094D242D400E0A1E0E2DF30E0303178F515
:10096600F1D2EE27A30FBE1F1C9120E02830E8F439
:10097600A1E0DDDFD1DFE22FA12FE7D3E07829F078
:10098600E0E8E03011F0E1E001C0E0E0AE2FC7DFC3
:10099600C3DFA0E0CCDFC0DFE02FEE0FEF93CFDFA9
:1009A600AF91EA2B0E2F2F5FE1CFE32FAC81BD81F4
:1009B600F0E0EA0FFB1F008300E03F5FCFCFAC8182
:1009C600BD815096E0E0EC93A1E0B1DFA5DFA0E0A9
:1009D600AEDFA0E0A4DFA0DF9FDF9EDF9DDF9CDF10
:1009E6009BDF01D428960895BB9AC398BC98B49807
:1009F600BD9AC598089541D2F1D3A7D21296D8D3FD
:100A06003097F1F0A2D2A4D28F01309761F0023074
:100A1600E0E01E0770F0F80131978F01AA81BB81D3
:100A26001496ED93FC9391D2129695D23197AC81A0
:100A3600A0838BD2BDD3FF2312F087D28CD205C000
:100A460084D2EFEFFFEFED93FC93CFD32596089575
:100A560014D22697BFD310E0AC85BD85E0E0F0E068
:100A6600ED93FC93EA89FB893196EA8BFB8B3197F0
:100A7600E4912E2FE03009F400C1E12FE03031F48B
:100A8600253211F411E001C06CD2F6C0E130A1F4B8
:100A9600253211F466D2EFC012E040E000E02D32BC
:100AA60011F401E0E9C02B3211F44BE2E5C020322B
:100AB60011F440E2E1C002C0E23039F450E013E044
:100AC600203311F40068D8C003C0E33009F0D4C065
:100AD600203310F02A3308F007C0AAE05A9F502DA1
:100AE600E22FE0535E0FC8C0E22FE33639F440D25E
:100AF60042D23ED2A481AA9342D2BDC0E33741F48A
:100B060044D245D2EE83FF831DD285D11E2F09C064
:100B1600E03759F43AD23BD23DD214D287D11E2FB8
:100B2600086002600F7730E02EC0E43611F0E93637
:100B360011F4046002C0E53729F4E6E2F0E02AD2B7
:100B460015E00BC0E83511F4086003C0E83709F07A
:100B560092C0E0E3F0E01ED214E002FF11C015D20D
:100B660016D21BD2AB85AA232AF4EA85FB85E1D2ED
:100B760014D24DE2403011F01F5F01C00B7F03C05D
:100B860004D205D20AD200FD10C0151770F407FF73
:100B960008C002FF04C00B7F242F115001C020E3C0
:100BA60001C020E2DED15150F0CF312F01FF14C039
:100BB600303089F003FF05C0EE81FF812591EAD12F
:100BC60004C0C0D12D91AE83BF83CBD1503009F084
:100BD60051503150EDCF46C020E3EE81FF81ECD27B
:100BE600E887F987EE81FF813296D4D1E885F985C9
:100BF600AA85BB85AE17BF0748F02F5FA885B985C4
:100C0600EA85FB85EA1BFB0BC8D1F0CF2A3328F017
:100C160003FF02C0295F01C0295D04FD19C021330D
:100C260020F4A885B985119709F409C0531710F067
:100C360000FF01C011C020E207FF0AC020E30061E7
:100C460002FF06C00B7F4A939AD1503009F05150EB
:100C560088D1503009F051503150A885B985129786
:100C660008F0BACF00FF07C0503029F05150E0E23B
:100C7600EA9385D1F9CF10E0F5CEAC85BD8598D243
:100C8600B0D264960895FF92F82E2697A5D288D101
:100C9600309719F4EFEFFFEF1BC0DE01169645D231
:100CA6008D017ED177D1E0E0E887E987DE011A96EB
:100CB6003CD27ED2F6D01A930A93EEEFF4E0F1D04E
:100CC600DE011A96C5DE9F013DD1E0E0EC93F90105
:100CD6008AD22A96FF900895AA93E881E07111F0CE
:100CE600939A01C09398E881E07211F0949A01C03A
:100CF6009498E881E07411F0959A01C09598E8817E
:100D0600E07811F0969A01C096984FD1929A4DD1FB
:100D160092984BD17EC0AA93A881DEDFE881E29546
:100D2600E883A881D9DF88EC90E00197F1F771C0DC
:100D3600AA93E881F0E0E456FE4FE081A981AE0F68
:100D4600EADF6980E881E093A00122960895A2E097
:100D5600E2DFA3E09FD0ACE0DEDFA1E0DCDFA3E0D2
:100D660099D0E0E0E093A0016E2E0895AA93A881A1
:100D7600AA3021F0E091A1016E1660F0E0E0EA935E
:100D8600A091A001AF5FA093A001D2DFA881AA30F5
:100D960009F43FC06394909AA881BDDF909839C04A
:100DA6006CD01A93A981BA81ED91A983BA831E2FBB
:100DB600E03019F0A12FDADFF5CF188123960895D8
:100DC600AA938B9A8C9A8D9A8E9A8A9A889A899ADD
:100DD600929890989198E881E093A101E058E09369
:100DE6009E01E881E054E0939F01A4E153D0E1D055
:100DF600E0D0DFD0A0E270DF80E991E00197F1F763
:100E0600A8E289DFA4E087DFA5E885DFA6E083DF27
:100E16009EDF2196089531D0A991B991EE27FF273B
:100E26006D91662311F03196FBCF089526D0AA273F
:100E3600BB27E991F9910590002011F01196FBCF9F
:100E4600FD010895E3E0F0E0E815F9050895F601DF
:100E560031966F010895AAE9B1E0ED91FD913196C1
:100E6600FE93EE930895E2E0F0E0E815F9050895A3
:100E7600E1E0F0E0E815F9050895BA93AA9308951C
:100E8600EA81FB81FA93EA93AA81BB8161CDA881AD
:100E9600B9810895B0E094C0FE01B696FA93EA933C
:100EA6000895FA93EA93089580E0EDDE2496089576
:100EB600F8DFDE015796DECAFF276627772785D13A
:100EC6000895EFDFE32FEF5F0895E0E2E030089545
:100ED60088E0D9DE2C96089584E0D5DE289608951C
:100EE600E7E7EC83E2E7ED83E9E6EE83E4E7EF8309
:100EF600E5E6E8870895E987FE013A960895FE013A
:100F06003496D6CFCEDFD0CFA22F5DDA2E2F2A3F52
:100F16000895E22FEF5FD0CF2083F1CFE2E7EC8395
:100F26000895EE83FE0137960895E4E7ED8308956C
:100F3600EE83A22F48DA2E2F0895A22F44DA2E2F01
:100F46002B3F0895AE81BF810895AA81BB81089584
:100F560014962ED10895ED91FD913196FE93EE9360
:100F660008952A93AD85BE85EF85F889099508957C
:100F7600E889F98908953497E88BF98B0895AD854A
:100F8600BE85EF85F88909950895F2DFF4CFA88923
:100F9600B989DECFEE83FF830895EA87FB8708953C
:100FA600DE011C96C2D004D108958BE18A95F1F733
:100FB6000895A0E391DE80E991E00197F1F70895A5
:100FC600109639F080EA9FE00197F1F7A8951197FE
:100FD600C9F70895552342F4503811F4E0FF04C0D0
:100FE6003196691F791F6BF050E8572711F45F930C
:100FF6003CC05F3F31F0660F000C57956795752F23
:1010060008955F9300200AF03CC035C050E8192EC1
:101016001522880F991F9527550F879550E8072E9B
:101026000522660F771F7527550F679508956894F3
:1010360001C0E894309760407040B1F0002426F07B
:10104600772312F4009479D0172E7EE1112032F026
:101056007A95EE0FFF1F661F111CF9CFEF2FF62FA3
:10106600612D5F93C1DF5F910895EE27FF27662705
:1010760077275F910895EFEFFFEF6FE77FEF5F91BF
:101086000895EFEFFFEF6FE77FE75F9108955F93B6
:10109600BDDF703851F3903841F301240894791F6D
:1010A60023F41CF300203AF3ECCF0F921F932F93F7
:1010B6003F934F93112722279927689FA0018F9F5F
:1010C600302D410D591F6B9F300D411D591F8E9FAD
:1010D60027D0BF9F25D06A9F23D0BE9F1DD0AF9F2C
:1010E6001BD0AE9F110D291F391F491F591FE32F12
:1010F600F42F652F522F4F913F912F911F910F90F3
:1011060066232AF0550FEE1FFF1F661F02C0739558
:101116004BF260DF5F910895100D211D391F02C04B
:10112600200D311D491F591F08950024AF0DB01D14
:101136000895F195E195F0400895F09560957095C4
:10114600E195FF4F6F4F7F4F0895EE230E2EEA2F46
:1011560019F0EE0F0A94E9F708956F2F660F660BE4
:10116600762F08950024112490E1AA0FBB1F001CBE
:10117600111C0E1A1F0A18F40E0E1F1E01C0A160C4
:101186009A9599F7FD01D001089504D0EBDF0EF48E
:10119600D0DF0895E894F7FF02C0CBDF6894B7FF6D
:1011A60006C0A095B095119600F8039400FA08952C
:1011B600ED91FC91119708950590F491E02D089515
:1011C600E883F9836A837B8308957A936A93FA9313
:1011D600EA9308955A934A933A932A931A930A9351
:1011E60008955D814C813B812A811981088108958A
:00000001FF
