S012000074756E65725F6967746E2E73726563D3
S113000022C03CC03BC03AC039C038C037C036C03B
S113001035C034C033C032C031C030C02FC02EC050
S11300202DC02CC02BC0E3C021C1F6C02EC1D8C046
S113003016C1F9C02FC1E2C01EC1E7C021C1C9C0A9
S113004007C1F8C0FEC011241FBECFE5D4E0DEBF57
S1130050CDBF11E0A0E6B0E0EAE1F4E002C0059013
S11300600D92A830B107D9F721E0A8E0B1E001C0B2
S11300701D92AC30B207E1F73BD0CDC1C1CF8FE9BF
S11300809FE00197F1F700C000000895929AF7DF0E
S11300909298F5DF0895CF93C82F82B3877882BBF7
S11300A092B38C2F807F8695892B82BBEFDF82B33E
S11300B0877882BB82B3CF70CC0FCC0FCC0FC82B08
S11300C0C2BBE4DFCF91089581E0E5DF0895CF93CB
S11300D0DF93EC018881882341F02196909ADBDF3D
S11300E09098CDDF89918111F9CFDF91CF91089557
S11300F014BA85B38F6385BB87B38C7F87BB88B302
S1130100836088BB80E690E090930B0180930A01A2
S113011082B3877882BB81B3886781BB82B38A7FCD
S113012082BB81B3856081BB82B3886182BBAEDF51
S11301308FE19EE40197F1F700C00000A7DFA6DF7E
S11301409398A4DF88E2A7DF8CE0A5DF81E0A3DF3A
S113015082E0A1DF80910A0190910B01B8DF9FEF4B
S11301602BE782E9915020408040E1F700C0000075
S1130170ABDF80EC90DF87E690E0A9DF0F2EF8EF8D
S1130180AF2EF0E0BF2EF02D0F2EF8EE8F2EF0E004
S11301909F2EF02D0F2EF0EE6F2EF0E07F2EF02D1F
S11301A00F2EF8ED4F2EF0E05F2EF02D0F2EF0ED18
S11301B02F2EF0E03F2EF02D80E86DDF83B390E02A
S11301C0FC01F097E031F10508F06BC0ED5EFF4FE4
S11301D0099488E790E090930B0180930A0165C02D
S11301E080E890E090930B0180930A015EC088E858
S11301F090E090930B0180930A0157C080E990E04E
S113020090930B0180930A0150C088E990E0909389
S11302100B0180930A0149C080EA90E090930B019E
S113022080930A0142C088EA90E090930B01809386
S11302300A013BC080EB90E090930B0180930A018C
S113024034C088EB90E090930B0180930A012DC099
S113025080EC90E090930B0180930A0126C088EC17
S113026090E090930B0180930A011FC030920B0120
S113027020920A011AC050920B0140920A0115C043
S113028070920B0160920A0110C090920B0180924F
S11302900A010BC080EF90E090930B0180930A0158
S11302A004C0B0920B01A0920A0186B3837090E05F
S11302B08C179D0709F44DC0C130D10521F1A0F080
S11302C0C230D10519F0239761F13AC0833091050A
S11302D021F40F5F1F4FEC013CC0009799F52FEFFD
S11302E0E21AF20AEC0135C08230910521F40F5F65
S11302F01F4FEC012EC08130910531F52FEFE21A2A
S1130300F20AEC0126C0009721F40F5F1F4FEC01A5
S113031020C083309105D1F42FEFE21AF20AEC01E8
S113032018C08130910521F40F5F1F4FEC0111C0FB
S11303308230910569F42FEFE21AF20AEC0109C048
S1130340EC0107C0EC0105C0EC0103C0EC0101C0E5
S1130350EC010430110518F0DA9400E010E084E0B8
S1130360E816F10418F0D394E12CF12C6091080103
S1130370709109014AE050E08D2D90E00FD080E8A3
S11303808ADE80910A0190910B01A1DE84EC83DE68
S113039080910801909109019ADE0ECF45325105F2
S11303A018F4423008F004C0FB011082CB01089518
S11303B0BB274A3031F4992322F4BDE2909581950C
S11303C09F4F01C0BB27FB015527AA27880F991F00
S11303D0AA1FA41710F0A41B83955051B9F7A05D70
S11303E0AA3308F0A95DA193009779F7B111B193ED
S11303F01192CB0100C0DC01FC01672F71917723BE
S1130400E1F7329704C07C916D9370836291AE17CB
S10D0410BF07C8F30895F894FFCF66
S113041A537461727421004D6F643D202020205270
S113042A6561643D202020004D656E7520312000F1
S113043A4D656E75203220004D656E75203320009F
S113044A4D656E75203420004D656E75203520008B
S113045A4D656E75203620004D656E752037200077
S113046A4D656E75203820004D656E752039200063
S113047A4D656E75203130004D656E752031310041
S113048A4D656E75203132004D656E75203133002D
S113049A4D656E75203134004D656E752031350019
S11304AA4D656E752031360050726573736564202C
S10B04BA627574746F6E00009A
S9030000FC
