S01100005465726D6F537461742E7372656370
S113000009C021C020C01FC01EC01DC01CC01BC011
S11300101AC019C011241FBECFE9CDBF10E0A0E65D
S1130020B0E0ECE3F2E002C005900D92A236B10715
S1130030D9F720E0A2E6B0E001C01D92AB36B207CA
S1130040E1F7DDD0F9C0DCCF81110DC08FB7F89492
S1130050B89AC0989EE19A95F1F7C09A9AE09A9559
S1130060F1F78FBF08958FB7F894B89AC09893E0CA
S11300709A95F1F70000C09A90E19A95F1F700C0C3
S11300808FBF08959FB7F894B89AC09800C0B898E5
S113009023E02A95F1F700C086B32FE02A95F1F703
S11300A000C09FBF817008959FB7F894B89AC09814
S11300B026EA2A95F1F700C0B89887E18A95F1F706
S11300C0000086B32CE82A95F1F79FBF80958170D4
S11300D00895CF93DF93D82FC8E08D2F8170B4DFBC
S11300E0D695C150D1F7DF91CF9108958F929F9209
S11300F0AF92BF92CF92EF92FF921F93CF93DF9371
S11301007C01EB01D1DF80EFE4DFA12C10E0CC24F3
S1130110C39488248394912CB5DFB82EBB0CB2DF32
S11301208B0D212F269526952695912F9770823039
S113013081F4F701E20FF11D940102C0220F331F75
S11301409A95E2F7C9019081890F80838C2D7CDF19
S113015030C0813019F480E077DF2BC0811132C0C8
S1130160A11025C0209719F130E0FE01E20FF31F22
S1130170408150E0092E02C0559547950A94E2F754
S113018040FD11C0F701E20FF31F940102C0220FDA
S1130190331F9A95E2F7C9019081890F80838C2DD2
S11301A053DFAC2C06C080E04FDFAC2C02C080E0F3
S11301B04BDF1F5F103409F0AFCF81E0AA2019F0A4
S11301C080E001C082E0DF91CF911F91FF90EF901A
S11301D0CF90BF90AF909F908F90089560E070E0B3
S11301E082E690E083DF813021F480936A0080E02E
S11301F00895823011F481E0089582E00895BB9A55
S1130200BC9AB99ABA9AC39A2FEF86E791E0215023
S113021080409040E1F700C00000C3982FEF86E7CC
S113022091E0215080409040E1F700C000003CDFA5
S10F023080936000D3DFE7CFF894FFCF89
S105023C0500B7
S9030000FC
