S0190000696E676563746F72496E74454570726F6D2E737265633D
S11300000C9434000C94F1000C94E7000C9451000F
S11300100C9451000C9451000C9451000C948101E7
S11300200C9451000C9431010C9451000C94510027
S11300300C9451000C9451000C9451000C945100F8
S11300400C9451000C9451000C9451000C944601F2
S11300500C943C010C94AF010C9451000C9451008D
S11300600C9451000C94510011241FBECFEFD8E022
S1130070DEBFCDBF11E0A0E0B1E0E4E9F6E002C0EC
S113008005900D92AA31B107D9F722E0AAE1B1E0B7
S113009001C01D92AC31B207E1F70E941B020C941F
S11300A048030C9400009093C5008093C400E2ECD4
S11300B0F0E0808186608083E1ECF0E080818860FC
S11300C0808308950F931F93CF93DF930DE911E07D
S11300D0C0E0D0E0CE010E943203F80181938F0189
S11300E02196C837D105B1F710921502DF91CF914F
S11300F01F910F9108951F93CF93DF931AE0C0E0EF
S1130100D0E0612FCE010E943A0321961E5F1A3F70
S1130110C1F7DF91CF911F91089587EC8093B300CD
S1130120E0EBF0E01082808182688083E1EBF0E014
S11301301082808181608083E0E7F0E080818260CA
S113014080830895ECE7F0E0808180668083EAE7AD
S1130150F0E080818E6E8083EBE7F0E08081826046
S113016080830895E9E6F0E080818F6080838DB319
S113017083608DBB089517B818B883E08AB91BB89B
S113018084B18E6084B984B1806F84B92D98089548
S113019080911B0290E040911701FC01E356FE4F51
S11301A0208130E0240F311DFC01ED5DFE4F808184
S11301B0A901480F511D87FD5A95CA0120911C01C0
S11301C0820F911D909322018093210108951F9223
S11301D00F920FB60F9211240F900FBE0F901F9025
S11301E018951F920F920FB60F9211242F933F93DD
S11301F04F935F936F937F938F939F93AF93BF932B
S1130200EF93FF9380919B0190919C0190931A022C
S11302108093190210929C0110929B018091150108
S113022081110EC081E0809315018091210190918C
S11302302201892B19F40E94C80002C00E94C80040
S1130240FF91EF91BF91AF919F918F917F916F91AA
S11302505F914F913F912F910F900FBE0F901F9080
S113026018951F920F920FB60F92112400000F9051
S11302700FBE0F901F9018951F920F920FB60F92FA
S113028011240F900FBE0F901F9018951F920F927C
S11302900FB60F9211242F933F934F935F938F9335
S11302A09F93EF93FF9380911A0190E04091000196
S11302B050E09C012F5F3F4F4217530751F41092B7
S11302C0000110921A01E1ECF0E080818F7D8083BF
S11302D00BC0FC01EF5FFE4F80818093C6008091CC
S11302E01A018F5F80931A01FF91EF919F918F9173
S11302F05F914F913F912F910F900FBE0F901F90E0
S113030018951F920F920FB60F9211242F938F936B
S11303109F9380911501813011F410921501809101
S11303209B0190919C0180322EE4920728F401965F
S113033090939C0180939B018091210190912201D3
S1130340009729F0019790932201809321019F91B6
S11303508F912F910F900FBE0F901F9018951F92A1
S11303600F920FB60F9211242F933F934F935F93E5
S11303706F937F938F939F93AF93BF93EF93FF9369
S113038080911D01813059F118F08230C1F142C0D1
S11303908091790080931E01ECE7F0E08081826017
S11303A0808381E080931D01E091130140911E013F
S11303B050E0415051092091140130E02E1B3109C5
S11303C0429FC001439F900D529F900D11246EEFE8
S11303D070E00E94C902E60FE0931B021BC08091EB
S11303E0790080932001ECE7F0E0808181608083D4
S11303F080818D7F808382E080931D010BC080917A
S1130400790080931F01ECE7F0E080818E7F808388
S113041010921D01FF91EF91BF91AF919F918F9128
S11304207F916F915F914F913F912F910F900FBEEC
S11304300F901F9018950E947B00E3E2F1E08BE996
S113044091E01192E817F907E1F70E9462000E9417
S11304508D000E94A2000E94B2000E94BB0083E3B0
S113046090E00E94530078940F2EF0EECF2EF3E923
S1130470DF2EF4E0EF2EF12CF02D0F2EFEE1AF2E47
S1130480F02DCFEFD0E0BB24BA940F2EF9E26F2EFB
S1130490F02D01E011E00F2EFDEC7F2EF02D0F2E3C
S11304A0F2E04F2EF1E05F2EF02D0F2EF3E02F2E11
S11304B0F1E03F2EF02D0F2EFDE08F2EF02D0F2EAC
S11304C0F5E09F2EF02D8091210190912201892B3E
S11304D021F0299A2C9A589A03C0589829982C9854
S11304E02091190230911A0240E050E0C701B60190
S11304F00E94DD02209315023093160240931702E6
S11305005093180280912001A89EC0011124BE01BD
S11305100E94C90260931C0180911F01B89EC00112
S11305201124BE010E94C90260931B018091000145
S113053081112AC0669D812D112482958F70F80146
S11305408083679D612D1124669566956695962F27
S1130550981BF2019083861BF1018083E4E0F1E0B3
S113056080829092000110C0F8018081E6ECF0E0F6
S1130570808380911A018F5F80931A01E1ECF0E08F
S11305808081806280839FCF80911A01882361F3E8
S1130590F5CF97FB072E16F4009407D077FD09D00A
S11305A00E94FC0207FC05D03EF4909581959F4F74
S11305B00895709561957F4F0895052E97FB1EF45D
S11305C000940E94F40257FD07D00E94100307FC18
S11305D003D04EF40C94F402509540953095219537
S11305E03F4F4F4F5F4F089590958095709561955B
S11305F07F4F8F4F9F4F0895AA1BBB1B51E107C02C
S1130600AA1FBB1FA617B70710F0A61BB70B881F9E
S1130610991F5A95A9F780959095BC01CD0108952D
S1130620A1E21A2EAA1BBB1BFD010DC0AA1FBB1FF2
S1130630EE1FFF1FA217B307E407F50720F0A21B64
S1130640B30BE40BF50B661F771F881F991F1A94D1
S113065069F760957095809590959B01AC01BD01FB
S1130660CF010895F999FECF92BD81BDF89A9927DB
S113067080B50895262FF999FECF1FBA92BD81BD8A
S113068020BD0FB6F894FA9AF99A0FBE0196089510
S1070690F894FFCF08
S11306940B496E69742073746172740D4142202095
S10D06A4200014007700000100009C
S9030000FC
