:1000000012C021C020C01FC01EC01DC01CC01BC00C
:100010001AC019C018C017C016C015C014C013C02C
:1000200012C011C010C011241FBECFE5D4E0DEBF46
:10003000CDBF21E0A0E6B0E001C01D92A336B2071B
:10004000E1F724D02EC0DCCF0F931F93CF93DF9323
:1000500002E610E0C0E0D0E0CE011BD0F8018193B1
:100060008F012196CA3FD105B9F7DF91CF911F913A
:100070000F91089587EC83BD85B5896085BD89B7EB
:10008000806C89BF89B78F7389BF0895DDDFF2DF88
:10009000FFCFE199FECF9FBB8EBBE09A99278DB32E
:0600A0000895F894FFCF63
:00000001FF
