S0190000696E676563746F72496E74454570726F6D2E737265633D
S113000012C021C020C01FC01EC01DC01CC01BC008
S11300101AC019C018C017C016C015C014C013C028
S113002012C011C010C011241FBECFE5D4E0DEBF42
S1130030CDBF21E0A0E6B0E001C01D92AA35B20711
S1130040E1F71CD025C0DCCFEF92FF920F931F93F2
S1130050CF93DF93C0E6D0E07E010AE511E0CE0144
S11300608E199F090DD08993C017D107C1F7DF916D
S1130070CF911F910F91FF90EF900895E5DFFFCF8F
S1130080E199FECF9FBB8EBBE09A99278DB308956B
S1070090F894FFCF0E
S9030000FC
