S0190000696E676563746F72496E74454570726F6D2E737265633D
S113000012C076C02BC0D8C0AFC028C027C026C03D
S113001025C024C023C022C021C020C0F0C01EC0FF
S11300201DC01CC01BC011241FBECFE5D4E0DEBF21
S1130030CDBF10E0A0E6B0E0ECE1F3E002C0059033
S11300400D92A83DB107D9F721E0A8EDB0E001C0B9
S11300501D92A136B207E1F7ECD05EC1D1CF0F9368
S11300601F93CF93DF930CED10E0C0E0D0E0CE01FE
S11300704BD1F80181938F012196C837D105B9F787
S113008010925401DF91CF911F910F91089587EC45
S113009083BD85B5896085BD89B7806C89BF0895A6
S11300A03D9A86B18E6E86B9089585B7836085BF03
S11300B08BB780648BBF089514BA15BA86E287BBE8
S11300C018BA11BA15BA08958091600190E0FC0144
S11300D0E452FF4FDC01A05ABF4F20818C91820F64
S11300E090915401890F809354010895C59A0895FD
S11300F01F920F920FB60F9211242F933F934F9399
S11301005F936F937F938F939F93AF93BF93EF937B
S1130110FF938091DA009091DB0090935F018093CC
S11301205E011092DB001092DA0080915801811177
S11301300AC081E08093580180915401811102C06A
S1130140C3DF01C0C1DFFF91EF91BF91AF919F91D8
S11301508F917F916F915F914F913F912F910F906C
S11301600FBE0F901F9018951F920F920FB60F920B
S113017011242F933F934F935F936F937F938F93A8
S11301809F93AF93BF93EF93FF93B0DFE5E5F1E067
S113019080818F5F8083FF91EF91BF91AF919F9199
S11301A08F917F916F915F914F913F912F910F901C
S11301B00FBE0F901F9018951F920F920FB60F92BB
S11301C011242F938F939F9380915801813011F4C0
S11301D0109258018091DA009091DB0080322EE475
S11301E0920728F401969093DB008093DA009F91A4
S11301F08F912F910F900FBE0F901F9018951F9203
S11302000F920FB60F9211248F939F9385B190E0B4
S11302109093D9008093D80085B1883718F485B1BC
S1130220809360019F918F910F900FBE0F901F904C
S11302301895E0E6F0E088ED90E021E02193E817DE
S1130240F907E1F70CDF23DF2BDF2FDF35DF7894AD
S1130250C0E20F2EC12CFFE9DF2EF4E2EF2EF12CC9
S1130260F02D88B38C2788BB20915E0130915F010B
S113027040E050E0C701B60109D020935A01309301
S11302805B0140935C0150935D01EBCF052E97FB1E
S113029016F400940FD057FD05D014D007FC02D0FB
S11302A046F408C050954095309521953F4F4F4FE7
S11302B05F4F089590958095709561957F4F8F4F0E
S11302C09F4F0895A1E21A2EAA1BBB1BFD010DC06E
S11302D0AA1FBB1FEE1FFF1FA217B307E407F507F2
S11302E020F0A21BB30BE40BF50B661F771F881FCE
S11302F0991F1A9469F760957095809590959B0164
S1130300AC01BD01CF010895E199FECF9FBB8EBB27
S10F0310E09A99278DB30895F894FFCF6C
S113031C6500000000000000000000000000000068
S113032C00000000000000000000000000000000BD
S113033C00000000000000000000000000000000AD
S113034C000000000000000000000000000000009D
S113035C000000000000000000000000000000008D
S113036C000000000000000000000000000000007D
S113037C000000000000000000000000000000006D
S10B038C000000000000000065
S9030000FC
