:1000000012C06AC020C01FC01EC01DC0B2C0D0C078
:10001000ECC019C018C0F4C016C015C014C013C07D
:1000200012C011C010C011241FBECFE5D4E0DEBF46
:10003000CDBF20E0A0E6B0E001C01D92A736B20718
:10004000E1F702D009C2DCCF18BA88E087BB15BA45
:1000500014BA81E082BB90E191BB13BE12BE1FBCFB
:100060008EBD1DBC1CBC17BC16BC1BBC1ABC19BC6D
:1000700018BC12BC15BC14BC13BC8BB780648BBFFE
:1000800083E085BF80E48ABF8CE189BF1AB880E82D
:1000900088B910BE16B81DB816BE88E695E4A1E969
:1000A000B0E48093630090936400A0936500B093E4
:1000B00066008099FECF949AC39A8CEC9CE00197DD
:1000C000F1F700C000009498C3988FEF9FE101976B
:1000D000F1F700C00000EDCF1F920F920FB60F9204
:1000E00011242F933F934F935F936F937F938F933D
:1000F0009F93AF93BF93EF93FF9398B388E08927C3
:1001000088BB85E08EBD8CB59DB5909362008093D1
:1001100061001DBC1CBC609161007091620080E0B8
:1001200090E00CD120916300309164004091650013
:10013000509166006FD0D6D07BBD6ABD80916100C2
:10014000909162008C31924018F480E480936000BA
:10015000FF91EF91BF91AF919F918F917F916F919F
:100160005F914F913F912F910F900FBE0F901F9075
:1001700018951F920F920FB60F9211248F939F9391
:10018000F89498B388E0892788BB949A8AB59BB580
:10019000409699BD88BD809160008F5F809360001C
:1001A00078949F918F910F900FBE0F901F9018958C
:1001B0001F920F920FB60F9211248F939F93F89472
:1001C000949880916000833030F488B599B540965A
:1001D0009BBD8ABD02C01092600078949F918F9160
:1001E0000F900FBE0F901F9018951F920F920FB691
:1001F0000F9211241EBC0F900FBE0F901F901895E8
:100200001F920F920FB60F9211240F900FBE0F90F6
:100210001F9018950CD0E6C0DED040F0D5D030F05D
:1002200021F45F3F19F0C7C0511110C1CAC0EBD013
:1002300098F39923C9F35523B1F3951B550BBB27AD
:10024000AA2762177307840738F09F5F5F4F220F5A
:10025000331F441FAA1FA9F333D00E2E3AF0E0E853
:1002600030D091505040E695001CCAF729D0FE2F9F
:1002700027D0660F771F881FBB1F26173707480731
:10028000AB07B0E809F0BB0B802DBF01FF279358E7
:100290005F4F2AF09E3F510568F08DC0D7C05F3F89
:1002A000ECF3983EDCF3869577956795B795F795CF
:1002B0009F5FC9F7880F911D9695879597F90895C7
:1002C000E1E0660F771F881FBB1F62177307840763
:1002D000BA0720F0621B730B840BBA0BEE1F88F772
:1002E000E095089598D088F09F5790F0B92F9927FE
:1002F000B751A0F0D1F0660F771F881F991F1AF031
:10030000BA95C9F712C0B13081F09FD0B1E008951D
:100310009CC0672F782F8827B85F39F0B93FCCF39E
:10032000869577956795B395D9F73EF49095809526
:10033000709561957F4F8F4F9F4F0895E89409C046
:1003400097FB3EF490958095709561957F4F8F4F08
:100350009F4F9923A9F0F92F96E9BB279395F6951E
:10036000879577956795B795F111F8CFFAF4BB0F9C
:1003700011F460FF1BC06F5F7F4F8F4F9F4F16C000
:10038000882311F096E911C0772321F09EE8872F8A
:10039000762F05C0662371F096E8862F70E060E046
:1003A0002AF09A95660F771F881FDAF7880F9695BF
:1003B000879597F9089597F99F6780E870E060E066
:1003C00008959FEF80EC089500240A9416161706EE
:1003D00018060906089500240A9412161306140636
:1003E00005060895092E0394000C11F4882352F099
:1003F000BB0F40F4BF2B11F460FF04C06F5F7F4F51
:100400008F4F9F4F089557FD9058440F551F59F037
:100410005F3F71F04795880F97FB991F61F09F3FF1
:1004200079F087950895121613061406551FF2CF1A
:100430004695F1DF08C0161617061806991FF1CF6A
:1004400086957105610508940895E894BB27662791
:0C0450007727CB0197F90895F894FFCFAF
:00000001FF
